:020000040800F2
:1000000070990020317C0008A1500008A35000081E
:10001000A7500008AB500008AF50000800000000D7
:10002000000000000000000000000000B3500008C5
:10003000B550000800000000B7500008B950000893
:100040004B7C00084B7C00084B7C00084B7C000874
:100050004B7C00084B7C00084B7C00084B7C000864
:100060004B7C00084B7C00084B7C00084B7C000854
:100070004B7C00084B7C00084B7C00084B7C000844
:100080004B7C00084B7C00084B7C00084B7C000834
:100090004B7C00084B7C00084B7C00084B7C000824
:1000A000093400084B7C00084B7C00084B7C00089E
:1000B0004B7C00084B7C00084B7C00084B7C000804
:1000C0004B7C00084B7C00084B7C00084B7C0008F4
:1000D0004B7C0008350400084B7C00084B7C000872
:1000E0004B7C00084B7C00084B7C00084B7C0008D4
:1000F0004B7C00084B7C00084B7C00084B7C0008C4
:100100004B7C00084B7C00081D3400084B7C000829
:100110004B7C00084B7C00084B7C0008E533000852
:10012000313400084B7C00084B7C00084B7C0008F5
:100130004B7C00084B7C00084B7C00084B7C000883
:100140004B7C00084B7C00084B7C00084B7C000873
:100150004B7C00084B7C00084B7C00088B3400086B
:100160004B7C00084B7C00084B7C00084B7C000853
:100170004B7C00084B7C00084B7C00084B7C000843
:100180004B7C00084B7C0008DFF80CD008F060F8CE
:10019000004800479D0100087099002005F094F880
:1001A00001F018FE01203F49086000F042FC00F019
:1001B00097F901F07EFD4FF4A06005F053FD3A4839
:1001C00007F0F0FB03F0AEF94FF4FA7005F0ADF86C
:1001D00003F0BCF965E004F0F1FD34480078012833
:1001E00004D103F0B3F900203049087009E004F0AD
:1001F000E0F900202E4908702E49087001202B4993
:1002000008702B4800780128F1D00CE004F06FFB57
:1002100000202749087027490870012023490870E9
:10022000002025490870224800780228EED00CE012
:1002300004F030FD00201E4908701E49087001209E
:100240001A49087000201C490870194800780328D2
:10025000EED00CE004F0B2FD0020154908701549FD
:1002600008700120114908700020134908701048D7
:1002700000780428EED00CE004F0FAFE00200C49CF
:1002800008700C49087001200849087000200A49CC
:100290000870074800780528EED04FF4FA7005F092
:1002A00044F898E7A002404200200140781D002059
:1002B000731D0020741D0020771D0020014600BF23
:1002C000704700BF7E4A128812F0400FFAD0C2B2C7
:1002D0007B4B9A80704700B587B00121084605F036
:1002E00023FA0121102005F079FA07220921754827
:1002F00005F07FFC07220A21724805F07AFC4FF4D2
:10030000C060059002208DF818008DF819000020BB
:100310008DF81A0001208DF81B0005A9694805F029
:10032000DDFB4FF4E13001900020ADF80800ADF89E
:100330000A00ADF80C00ADF810000C20ADF80E006E
:1003400001A95F4806F08BFD01215D4806F00FFE14
:1003500040215B4806F0F3FE012240F22551584847
:1003600006F0BBFE25208DF8000003208DF801006B
:100370008DF8020001208DF80300684605F077FC37
:1003800007B000BD00B587B00121202005F026FA96
:100390000121042005F0C8F9C020059002208DF845
:1003A000180003208DF8190000208DF81A00012094
:1003B0008DF81B0005A9444805F090FB0822062192
:1003C000414805F016FC082207213F4805F011FCC2
:1003D0004FF4E13001900020ADF80800ADF80A00BC
:1003E000ADF80C00ADF810000C20ADF80E0001A91E
:1003F000364806F034FD012240F22551334806F01C
:100400006CFE0121314806F0B2FD40212F4806F074
:1004100096FE47208DF8000000208DF80100022094
:100420008DF8020001208DF80300684605F01FFCDE
:1004300007B000BD10B540F22551214806F088FEF6
:1004400010B31F4806F0C2FDC4B22148008810F462
:10045000004F2BD11E48008810F4804F0CD00A2C7E
:1004600003D000201A49088020E01948008840F491
:1004700000401749088019E00D2C06D11448008867
:1004800040F480401249088010E011480088C0F311
:100490000D0010490C540E480088401C0C4908807F
:1004A00008460088C72801DD002008800A48006847
:1004B00008B9012000E000200849086010BD0000D4
:1004C00000100140000002400008024000140140FA
:1004D000040000209093002024824242A4824242E1
:1004E00000B58BB00121022005F01EF90121042086
:1004F00005F063F94FF47070099000208DF82A0020
:1005000002208DF8280003208DF8290001208DF8A5
:100510002B0009A9344805F0E1FA022206213248ED
:1005200005F067FB022207212F4805F062FB02223B
:1005300008212D4805F05DFB022209212A4805F01B
:1005400058FB0020ADF82000ADF81A0040F2E7306B
:1005500007905320ADF8180006A9244805F0A1FC27
:100560006020ADF804000020ADF810000120ADF8C7
:10057000060001A91D4805F029FD01A91B4805F049
:100580005EFD01A9194805F0A7FD01A9174805F06E
:1005900009FE0821154805F0A6FE0821134805F0BC
:1005A000ABFE0821114805F0B4FE08210F4805F004
:1005B000B9FE01210D4805F0DFFC01210B4805F0D3
:1005C000F9FC6421094805F05AFE6421074805F04A
:1005D00058FE6421054805F056FE6421034805F0E5
:1005E00054FE0BB000BD00000004024000080040B3
:1005F00000BFFE490880704700BFFD490880704772
:1006000008B5FB4800880090BDF8000008BD03B5A0
:10061000BDF80000F5490880BDF804004FF0D8414E
:10062000A1F880000CBD01B5BDF80000FFF7E0FFA8
:10063000052004F05EFEFFF7E3FF08BDED480089EA
:10064000EA4908807047EA490880704730B501469A
:1006500001F01F04C1F34513CA0AE50205EB431577
:100660001544A8B230BD00BF0100A0F10102D0B214
:10067000FAD1704700B502460B46DE494889FFF7BC
:10068000B7FF1012FFF7B8FFDA494989491C88B251
:10069000FFF7AEFFD0B2FFF7AFFFD6498889FFF76B
:1006A000A7FF1812FFF7A8FFD2498989491C88B211
:1006B000FFF79EFFD8B2FFF79FFF00BD3EB504468F
:1006C0000D460020029001900090CA480088A04288
:1006D00003DDC8484088A84201DC00203EBD294611
:1006E0002046FFF7C7FF4FF43850FFF781FFFFF7B1
:1006F00087FF0220FFF7B7FFFFF782FF029002207B
:10070000FFF7B1FFFFF77CFF0090BDF80800C0B213
:100710000190BDF804004FF6FF7101EA002001903E
:10072000BDF80800C012C002BDF80410891240EAEA
:100730004110BDF8001040EAE120CFE700B54FF4CA
:100740002450FFF755FF00BD00B54FF42050FFF7D0
:100750004FFF00BDF0B5064600240027082E1CD22E
:10076000DFE806F00406090C0F12151800BF14E0AC
:1007700044F0800411E044F040040EE044F0C00472
:100780000BE044F0200408E044F0600405E044F08D
:10079000A00402E044F0E00400BF00BF4FF458574B
:1007A00021463846FFF733FF14F0200F0DD0914853
:1007B000008890494988884214DA8E480588408824
:1007C0008C490880084645800CE08A4800888949A1
:1007D0004988884206DD8748058840888549088021
:1007E0000846458083494889FFF702FF0020FFF74C
:1007F00003FF80494989491C88B2FFF7F9FE0020B0
:10080000FFF7FAFE7B494989891C88B2FFF7F0FEA1
:1008100078490988491EC1F30F20FFF7EDFE75499D
:100820004989C91C88B2FFF7E3FE72490978491E5D
:10083000C8B2FFF7E1FE6F498889FFF7D9FE0020B3
:10084000FFF7DAFE6B498989491C88B2FFF7D0FEB1
:100850000020FFF7D1FE67498989891C88B2FFF71C
:10086000C7FE64494988491EC1F30F20FFF7C4FE43
:1008700060498989C91C88B2FFF7BAFE5D49897849
:10088000491EC8B2FFF7B8FEF0BD30B504460D46AC
:1008900029462046FFF7EEFEFFF7D0FE56480088B7
:1008A0005349088030BD10B503460C46514948896C
:1008B000FFF79EFE1812FFF79FFE4E494989491C1B
:1008C00088B2FFF795FED8B2FFF796FE49498889AE
:1008D000FFF78EFE2012FFF78FFE46498989491CDB
:1008E00088B2FFF785FEE0B2FFF786FE4148008937
:1008F0003E4908804FF0D840A0F8802010BD10B5C8
:10090000044694B900203B4988714FF43050088167
:100910004FF4285048814FF42C5088814FF4F070E8
:1009200008804FF44870488011E0012031498871F7
:100930004FF4305008814FF4285048814FF42C5028
:1009400088814FF4487008804FF4F0704880002090
:10095000FFF700FF10BD30B504460D46A018401E3D
:1009600082B2E818401E83B222494889FFF740FE50
:100970002012FFF741FE1F494989491C88B2FFF741
:1009800037FEE0B2FFF738FE1A494989891C88B260
:10099000FFF72EFE1012FFF72FFE16494989C91CDA
:1009A00088B2FFF725FED0B2FFF726FE11498889ED
:1009B000FFF71EFE2812FFF71FFE0E498989491C0A
:1009C00088B2FFF715FEE8B2FFF716FE09498989DC
:1009D000891C88B2FFF70CFE1812FFF70DFE0549BF
:1009E0008989C91C88B2FFF703FE07E07E00006C0E
:1009F0008000006C589400200C000020D8B2FFF753
:100A0000FBFD30BD30B50025FD48048840884443D7
:100A100000210846FFF72EFEFFF710FE00BF05E09D
:100A2000F8480088F849088005F10105A542F7D388
:100A300030BD00B5A1B00020209001217A2004F043
:100A400073FE0121084604F0A7FE4FF400601E90DB
:100A500001208DF87C0000208DF87E0002208DF8AA
:100A60007D0001208DF87F001EA9E84805F036F8CA
:100A70004CF233701E9002208DF87C0000208DF81F
:100A80007E0003208DF87D0001208DF87F001EA9D7
:100A9000DF4805F023F84FF680701E9002208DF895
:100AA0007C0000208DF87E0003208DF87D00012061
:100AB0008DF87F001EA9D74805F010F84FF480503C
:100AC0001E9002208DF87C0000208DF87E0003200F
:100AD0008DF87D0001208DF87F001EA9CE4804F01E
:100AE000FDFF4FF480501E9002208DF87C00002006
:100AF0008DF87E0003208DF87D0001208DF87F00A9
:100B00001EA9C64804F0EAFF0C220021C04805F0E7
:100B100070F80C220121BE4805F06BF80C2204216C
:100B2000BB4805F066F80C220521B94805F061F8CC
:100B30000C220821B64805F05CF80C220921B448C3
:100B400005F057F80C220A21B14805F052F80C22A2
:100B50000E21AF4805F04DF80C220F21AC4805F0EE
:100B600048F80C220721AB4805F043F80C22082175
:100B7000A84805F03EF80C220921A64805F039F8EE
:100B80000C220A21A34805F034F80C220B21A148BD
:100B900005F02FF80C2211469E4805F02AF80C2289
:100BA0000D219C4805F025F80C220E21994805F0EE
:100BB00020F80C220F21974805F01BF80C22114653
:100BC000954805F016F80C221146944805F011F8E6
:100BD0000F200890002009903C200A9000200B90E4
:100BE0000C900D900E90092001900020029008209A
:100BF00003900020049005900690079006200F9027
:100C00000020109011901020129000201390159049
:100C10001490169017904FF480501890002019905F
:100C20004FF480401A9000201B9008A81C9001A847
:100C30001D900FA806F0F2FA0121062006F076FBBF
:100C4000322004F072FB01210020FFF7E0FC32208B
:100C500004F06BFB0020FFF7E6FC6949888008463A
:100C60008088FF2805DB08468088A0F57F41FF3992
:100C70002AD14FF45A40FFF7BBFCFFF7C1FC604993
:100C800088804FF45B40FFF7B3FCFFF7B9FC5C4989
:100C90008880084680884FF6FF7101EA0020584995
:100CA00088804FF45C40FFF7A3FCFFF7A9FC544990
:100CB000898808435249888008468088B0F5004FEB
:100CC00002D145F2105088804D488088A0F5AA4195
:100CD00010391CD15248006820F00F004FF020411D
:100CE000C1F81C010846D0F81C0120F47060C1F85E
:100CF0001C010846D0F81C0140F00300C1F81C019B
:100D00000846D0F81C0140F40070C1F81C013C48B2
:100D10008088A0F5AA41103971D155214FF4704057
:100D2000FFF775FCAA214FF20100FFF770FC52217A
:100D30004FF20200FFF76BFC08214FF20300FFF7B0
:100D400066FC01214FF20400FFF761FC0D214FF416
:100D50003040FFF75CFC0D214BF20100FFF757FC20
:100D60000D214BF20200FFF752FC34214FF43640C4
:100D7000FFF74DFC34214BF20160FFF748FC3421B2
:100D80004BF20260FFF743FC0D214FF43140FFF7B7
:100D90003EFC0D214BF20110FFF739FC0D214BF207
:100DA0000210FFF734FC34214FF43740FFF72FFCDB
:100DB00034214BF20170FFF72AFC34214BF2027010
:100DC000FFF725FC00214FF43240FFF720FC002103
:100DD0004BF20120FFF71BFC00214BF20220FFF732
:100DE00016FC24214FF43840FFF711FC24214BF668
:100DF0000100FFF70CFC24214BF6020012E0FDE39A
:100E0000589400200E0000208000006C0004024076
:100E1000000C024000100240001402400018024082
:100E20001C0100A0FFF7F3FB01214FF43F40FFF747
:100E3000EEFB0F214FF43340FFF7E9FB0F214BF29C
:100E40000130FFF7E4FB0F214BF20230FFF7DFFB2D
:100E500034214FF43940FFF7DAFB34214BF601100F
:100E6000FFF7D5FB34214BF60210FFF7D0FB08212A
:100E70004FF43540FFF7CBFB08214BF20150FFF751
:100E8000C6FB08214BF20250FFF7C1FB03214FF4D0
:100E90004240FFF7BCFB24214FF43A40FFF7B7FB79
:100EA00024214BF60120FFF7B2FB24214BF6022050
:100EB000FFF7ADFB00214FF43C40FFF7A8FB782182
:100EC0004BF60140FFF7A3FB00214BF60240FFF772
:100ED0009EFB00214FF43D40FFF799FB78214BF634
:100EE0000150FFF794FB00214BF60250FFF78FFBF8
:100EF00000214FF43E40FFF78AFB64214BF601606E
:100F0000FFF785FB00214FF45140FFF780FB3321B1
:100F10004DF20110FFF77BFB00214DF20210FFF7AD
:100F200076FB34214DF20310FFF771FB00214DF2E7
:100F30000410FFF76CFB3A214DF20510FFF767FB39
:100F400000214DF20610FFF762FB4A214DF2071017
:100F5000FFF75DFB00214DF20810FFF758FB5C2105
:100F60004DF20910FFF753FB00214DF20A10FFF775
:100F70004EFB81214DF20B10FFF749FB00214DF292
:100F80000C10FFF744FBA6214DF20D10FFF73FFBBD
:100F900000214DF20E10FFF73AFBE5214DF20F1044
:100FA000FFF735FB01214DF21010FFF730FB132145
:100FB0004DF21110FFF72BFB01214DF21210FFF73C
:100FC00026FB54214DF21310FFF721FB01214DF2B6
:100FD0001410FFF71CFB82214DF21510FFF717FBD1
:100FE00001214DF21610FFF712FBCA214DF2171026
:100FF000FFF70DFB02214DF21810FFF708FB00214F
:101000004DF21910FFF703FB02214DF21A10FFF702
:10101000FEFA01214DF21B10FFF7F9FA02214DF201
:101020001C10FFF7F4FA34214DF21D10FFF7EFFA10
:1010300002214DF21E10FFF7EAFA67214DF21F1050
:10104000FFF7E5FA02214DF22010FFF7E0FA8421C4
:101050004DF22110FFF7DBFA02214DF22210FFF7CB
:10106000D6FAA4214DF22310FFF7D1FA02214DF256
:101070002410FFF7CCFAB7214DF22510FFF7C7FA7D
:1010800002214DF22610FFF7C2FACF214DF22710B0
:10109000FFF7BDFA02214DF22810FFF7B8FADE2162
:1010A0004DF22910FFF7B3FA02214DF22A10FFF793
:1010B000AEFAF2214DF22B10FFF7A9FA02214DF200
:1010C0002C10FFF7A4FAFE214DF22D10FFF79FFA26
:1010D00003214DF22E10FFF79AFA10214DF22F1036
:1010E000FFF795FA03214DF23010FFF790FA332104
:1010F0004DF23110FFF78BFA03214DF23210FFF75A
:1011000086FA6D214DF23310FFF781FA00214FF47A
:101110005240FFF77CFA33214DF20120FFF777FAB6
:1011200000214DF20220FFF772FA34214DF2032024
:10113000FFF76DFA00214DF20420FFF768FA3A211B
:101140004DF20520FFF763FA00214DF20620FFF76C
:101150005EFA4A214DF20720FFF759FA00214DF2BD
:101160000820FFF754FA5C214DF20920FFF74FFAEF
:1011700000214DF20A20FFF74AFA81214DF20B209F
:10118000FFF745FA00214DF20C20FFF740FAA621A7
:101190004DF20D20FFF73BFA00214DF20E20FFF734
:1011A00036FAE5214DF20F20FFF731FA01214DF219
:1011B0001020FFF72CFA13214DF21120FFF727FA28
:1011C00001214DF21220FFF722FA54214DF2132093
:1011D000FFF71DFA01214DF21420FFF718FA8221C2
:1011E0004DF21520FFF713FA01214DF21620FFF7FB
:1011F0000EFACA214DF21720FFF709FA02214DF22B
:101200001820FFF704FA00214DF21920FFF7FFF92B
:1012100002214DF21A20FFF7FAF901214DF21B20AD
:10122000FFF7F5F902214DF21C20FFF7F0F9342108
:101230004DF21D20FFF7EBF902214DF21E20FFF7C2
:10124000E6F967214DF21F20FFF7E1F902214DF287
:101250002020FFF7DCF984214DF22120FFF7D7F998
:1012600002214DF22220FFF7D2F9A4214DF22320D2
:10127000FFF7CDF902214DF22420FFF7C8F9B7217D
:101280004DF22520FFF7C3F902214DF22620FFF78A
:10129000BEF9CF214DF22720FFF7B9F902214DF217
:1012A0002820FFF7B4F9DE214DF22920FFF7AFF92E
:1012B00002214DF22A20FFF7AAF9F2214DF22B204C
:1012C000FFF7A5F902214DF22C20FFF7A0F9FE212E
:1012D0004DF22D20FFF79BF903214DF22E20FFF751
:1012E00096F910214DF22F20FFF791F903214DF2CD
:1012F0003020FFF78CF933214DF23120FFF787F9C9
:1013000003214DF23220FFF782F96D214DF2332097
:10131000FFF77DF900214FF45340FFF778F93321AF
:101320004DF20130FFF773F900214DF20230FFF763
:101330006EF934214DF20330FFF769F900214DF2C7
:101340000430FFF764F93A214DF20530FFF75FF9F9
:1013500000214DF20630FFF75AF94A214DF20730CD
:10136000FFF755F900214DF20830FFF750F95C21E5
:101370004DF20930FFF74BF900214DF20A30FFF72B
:1013800046F981214DF20B30FFF741F900214DF272
:101390000C30FFF73CF9A6214DF20D30FFF737F97D
:1013A00000214DF20E30FFF732F9E5214DF20F30FA
:1013B000FFF72DF901214DF21030FFF728F9132125
:1013C0004DF21130FFF723F901214DF21230FFF7F2
:1013D0001EF954214DF21330FFF719F901214DF296
:1013E0001430FFF714F982214DF21530FFF70FF991
:1013F00001214DF21630FFF70AF9CA214DF21730DC
:10140000FFF705F902214DF21830FFF700F900212E
:101410004DF21930FFF7FBF802214DF21A30FFF7B9
:10142000F6F801214DF21B30FFF7F1F802214DF2E1
:101430001C30FFF7ECF834214DF21D30FFF7E7F8D0
:1014400002214DF21E30FFF7E2F867214DF21F3006
:10145000FFF7DDF802214DF22030FFF7D8F88421A4
:101460004DF22130FFF7D3F802214DF22230FFF781
:10147000CEF8A4214DF22330FFF7C9F802214DF236
:101480002430FFF7C4F8B7214DF22530FFF7BFF83D
:1014900002214DF22630FFF7BAF8CF214DF2273066
:1014A000FFF7B5F802214DF22830FFF7B0F8DE2142
:1014B0004DF22930FFF7ABF802214DF22A30FFF749
:1014C000A6F8F2214DF22B30FFF7A1F802214DF2E0
:1014D0002C30FFF79CF8FE214DF22D30FFF797F8E6
:1014E00003214DF22E30FFF792F810214DF22F30EC
:1014F000FFF78DF803214DF23030FFF788F83321E4
:101500004DF23130FFF783F803214DF23230FFF70F
:101510007EF86D214DF23330FFF779F800214FF45A
:101520005440FFF774F833214DF20140FFF76FF894
:1015300000214DF20240FFF76AF834214DF20340DA
:10154000FFF765F800214DF20440FFF760F83A21FB
:101550004DF20540FFF75BF800214DF20640FFF722
:1015600056F84A214DF20740FFF751F800214DF29D
:101570000840FFF74CF85C214DF20940FFF747F8AF
:1015800000214DF20A40FFF742F881214DF20B4055
:10159000FFF73DF800214DF20C40FFF738F8A62187
:1015A0004DF20D40FFF733F800214DF20E40FFF7EA
:1015B0002EF8E5214DF20F40FFF729F801214DF2F9
:1015C0001040FFF724F813214DF21140FFF71FF8E8
:1015D00001214DF21240FFF71AF854214DF2134049
:1015E000FFF715F801214DF21440FFF710F88221A2
:1015F0004DF21540FFF70BF8012100E01FE34DF21B
:101600001640FFF704F8CA214DF21740FEF7FFFF1E
:1016100002214DF21840FEF7FAFF00214DF2194069
:10162000FEF7F5FF02214DF21A40FEF7F0FF01210F
:101630004DF21B40FEF7EBFF02214DF21C40FEF77E
:10164000E6FF34214DF21D40FEF7E1FF02214DF28D
:101650001E40FEF7DCFF67214DF21F40FEF7D7FF6B
:1016600002214DF22040FEF7D2FF84214DF22140AD
:10167000FEF7CDFF02214DF22240FEF7C8FFA42164
:101680004DF22340FEF7C3FF02214DF22440FEF746
:10169000BEFFB7214DF22540FEF7B9FF02214DF202
:1016A0002640FEF7B4FFCF214DF22740FEF7AFFFF3
:1016B00002214DF22840FEF7AAFFDE214DF229401B
:1016C000FEF7A5FF02214DF22A40FEF7A0FFF2210E
:1016D0004DF22B40FEF79BFF02214DF22C40FEF70E
:1016E00096FFFE214DF22D40FEF791FF03214DF2B2
:1016F0002E40FEF78CFF10214DF22F40FEF787FFA2
:1017000003214DF23040FEF782FF33214DF231408C
:10171000FEF77DFF03214DF23240FEF778FF6D2189
:101720004DF23340FEF773FF00214FF45540FEF7B2
:101730006EFF33214DF20150FEF769FF00214DF29B
:101740000250FEF764FF34214DF20350FEF75FFFB5
:1017500000214DF20450FEF75AFF3A214DF2055098
:10176000FEF755FF00214DF20650FEF750FF4A21CB
:101770004DF20750FEF74BFF00214DF20850FEF7E7
:1017800046FF5C214DF20950FEF741FF00214DF26A
:101790000A50FEF73CFF81214DF20B50FEF737FF58
:1017A00000214DF20C50FEF732FFA6214DF20D50F4
:1017B000FEF72DFF00214DF20E50FEF728FFE52128
:1017C0004DF20F50FEF723FF01214DF21050FEF7AE
:1017D0001EFF13214DF21150FEF719FF01214DF2AA
:1017E0001250FEF714FF54214DF21350FEF70FFF75
:1017F00001214DF21450FEF70AFF82214DF21550DF
:10180000FEF705FF01214DF21650FEF700FFCA2139
:101810004DF21750FEF7FBFE02214DF21850FEF775
:10182000F6FE00214DF21950FEF7F1FE02214DF2B5
:101830001A50FEF7ECFE01214DF21B50FEF7E7FEB9
:1018400002214DF21C50FEF7E2FE34214DF21D50F4
:10185000FEF7DDFE02214DF21E50FEF7D8FE672195
:101860004DF21F50FEF7D3FE02214DF22050FEF73D
:10187000CEFE84214DF22150FEF7C9FE02214DF229
:101880002250FEF7C4FEA4214DF22350FEF7BFFE06
:1018900002214DF22450FEF7BAFEB7214DF2255039
:1018A000FEF7B5FE02214DF22650FEF7B0FECF2125
:1018B0004DF22750FEF7ABFE02214DF22850FEF705
:1018C000A6FEDE214DF22950FEF7A1FE02214DF2C7
:1018D0002A50FEF79CFEF2214DF22B50FEF797FEA8
:1018E00002214DF22C50FEF792FEFE214DF22D50BA
:1018F000FEF78DFE03214DF22E50FEF788FE1021DB
:101900004DF22F50FEF783FE03214DF23050FEF7CB
:101910007EFE33214DF23150FEF779FE03214DF268
:101920003250FEF774FE6D214DF23350FEF76FFE1C
:1019300000214FF45640FEF76AFE33214DF201605C
:10194000FEF765FE00214DF20260FEF760FE3421D5
:101950004DF20360FEF75BFE00214DF20460FEF7DE
:1019600056FE3A214DF20560FEF751FE00214DF280
:101970000660FEF74CFE4A214DF20760FEF747FE77
:1019800000214DF20860FEF742FE5C214DF2096035
:10199000FEF73DFE00214DF20A60FEF738FE812180
:1019A0004DF20B60FEF733FE00214DF20C60FEF7A6
:1019B0002EFEA6214DF20D60FEF729FE00214DF20C
:1019C0000E60FEF724FEE5214DF20F60FEF71FFECC
:1019D00001214DF21060FEF71AFE13214DF2116045
:1019E000FEF715FE01214DF21260FEF710FE5421A4
:1019F0004DF21360FEF70BFE01214DF21460FEF76D
:101A000006FE82214DF21560FEF701FE01214DF226
:101A10001660FEF7FCFDCA214DF21760FEF7F7FDD8
:101A200002214DF21860FEF7F2FD00214DF219601F
:101A3000FEF7EDFD02214DF21A60FEF7E8FD0121EF
:101A40004DF21B60FEF7E3FD02214DF21C60FEF734
:101A5000DEFD34214DF21D60FEF7D9FD02214DF26D
:101A60001E60FEF7D4FD67214DF21F60FEF7CFFD2B
:101A700002214DF22060FEF7CAFD84214DF2216063
:101A8000FEF7C5FD02214DF22260FEF7C0FDA42144
:101A90004DF22360FEF7BBFD02214DF22460FEF7FC
:101AA000B6FDB7214DF22560FEF7B1FD02214DF2E2
:101AB0002660FEF7ACFDCF214DF22760FEF7A7FDB3
:101AC00002214DF22860FEF7A2FDDE214DF22960D1
:101AD000FEF79DFD02214DF22A60FEF798FDF221EE
:101AE0004DF22B60FEF793FD02214DF22C60FEF7C4
:101AF0008EFDFE214DF22D60FEF789FD03214DF292
:101B00002E60FEF784FD10214DF22F60FEF77FFD61
:101B100003214DF23060FEF77AFD33214DF2316042
:101B2000FEF775FD03214DF23260FEF770FD6D2169
:101B30004DF23360FEF76BFD55214FF47040FEF718
:101B400066FDAA214FF20100FEF761FD52214FF21E
:101B50000200FEF75CFD08214FF20300FEF757FD7F
:101B600000214FF20400FEF752FDCC214FF431402A
:101B7000FEF74DFD00214BF20110FEF748FD052157
:101B80004FF43640FEF743FD70214FF43740FEF727
:101B90003EFD70214BF20170FEF739FD01214FF43B
:101BA0003840FEF734FD03214BF60100FEF72FFD10
:101BB00003214BF60200FEF72AFD03214BF603003A
:101BC000FEF725FD02214FF43C40FEF720FD0021E9
:101BD0004BF60140FEF71BFD00214BF60240FEF7DD
:101BE00016FDD0214FF44940FEF711FD02214CF6BD
:101BF0000110FEF70CFD50214CF60210FEF707FD18
:101C000050214CF60310FEF702FD50214CF6041053
:101C1000FEF7FDFC00214FF45450FEF7F8FC55216F
:101C20004FF46850FEF7F3FC4FF48850FEF7E0FCE9
:101C3000782003F05EFB4FF42450FEF7D9FC00201F
:101C4000FEF75DFEFEF7DEFE01200249086021B0CE
:101C500000BD0000AC8240421FB50121082003F006
:101C6000ACFD40F2E73002902920ADF804000020DE
:101C7000ADF80600ADF80C0001A9524804F011F9C6
:101C8000012211464F4804F0ADFD32208DF80000CE
:101C900000208DF8010004208DF8020001208DF84D
:101CA0000300684603F0E3FF0121464804F082F98F
:101CB0001FBD1FB50121202003F07FFD41F28730B9
:101CC00002905320ADF804000020ADF80600ADF8F6
:101CD0000C0001A93C4804F0E4F8012211463A48FE
:101CE00004F080FD37208DF8000001208DF8010000
:101CF00002208DF8020001208DF80300684603F0F1
:101D0000B6FF0121304804F055F91FBD1FB5012170
:101D1000080403F063FD40F69F70029040F24730E4
:101D2000ADF804000020ADF80600ADF80C0001A9E4
:101D3000264804F0B6F801221146244804F052FD6A
:101D400018208DF8000002208DF801008DF80200A7
:101D500001208DF80300684603F089FF01211B482C
:101D600004F028F91FBD1FB50121880403F036FDDA
:101D700040F69F70029040F24730ADF8040000201A
:101D8000ADF80600ADF80C0001A9114804F089F87F
:101D9000012211460E4804F025FD1A208DF800009E
:101DA00002208DF8010003208DF8020001208DF83B
:101DB0000300684603F05BFF0121054804F0FAF8D0
:101DC0001FBD0000000C0040001400400040014016
:101DD000004801401CB50121212003F0A5FC4FF46F
:101DE0008070009003208DF8050000208DF806001B
:101DF00002208DF8070001208DF80400694687480D
:101E000003F06CFE0020864908604FF0010000904E
:101E10004FF003008DF805004FF002008DF8070029
:101E20004FF000008DF8040069467C4803F056FE30
:101E30004020009003208DF8050000208DF806005A
:101E400002208DF8070001208DF8040069467548CE
:101E500003F044FE01207449C1F898021CBD0146FC
:101E600001F10F0291B2212291FBF2F2D0B26F4A3E
:101E70001278824209D16E4A1278824205D06D4AA8
:101E80001278521C6B4B1A7004E00022674B1A70D8
:101E9000684B1A70674A1278032A04D1644A10709A
:101EA0000022644B1A70614A1070704710B5604888
:101EB00000780A2875D2DFE800F00517293B4D5F4E
:101EC00075818DA25C480078012806D15B480078B6
:101ED00018B901205949087002E0002056490870DD
:101EE00000205749087097E053480078012806D130
:101EF0005448007818B901205249087002E00120C6
:101F00004D49087001204E49087085E04A48007824
:101F100028B94B48007810B901F034FF04E04A4872
:101F20000078401E4849087001204549087073E058
:101F30004148007828B94248007810B901F008FFFC
:101F400004E042480078401E4049087001203C49A6
:101F5000087061E03848007828B93948007810B92D
:101F600001F099FE04E038480078401E36490870B8
:101F70000120334908704FE02F48007840B93048BD
:101F8000007828B901F02AFE05202B49087004E0EA
:101F90002E480078401C2D490870012028490870FF
:101FA0003AE038E02648007820B901F062FC0420CD
:101FB000214908700120224908702DE0204800784E
:101FC00020B901F008FC03201B49087001201C49BE
:101FD000087021E01848007840B91948007828B9FD
:101FE00001F0A3FB02201449087004E016480078B1
:101FF000401C154908700120114908700CE0104878
:10200000007820B901F044FB01200B490870012041
:102010000B49087000E000BF00BF10BD0000024087
:10202000A00240420014024000804242711D002084
:10203000701D0020721D0020731D0020781D0020DF
:10204000741D0020771D0020751D0020761D0020C6
:102050002DE9F05F05460E4617469846DDF828A0A4
:102060004FF0000B781B401C1FFA80FB344614E035
:1020700021462846FEF7FEFAFEF7E0FA4FF0000987
:1020800007E04FF0D840A0F880A009F101001FFA46
:1020900080F9D945F5DB601C84B24445E8DDBDE834
:1020A000F09F2DE9F84F07460D4690469946DDF81A
:1020B00028B0A8EB0700401C1FFA80FAA9EB050026
:1020C000401C80B20090002415E0281981B23846E7
:1020D000FEF7D0FAFEF7B2FA002608E004FB0A6029
:1020E0003BF81000F849088006F1010086B2564519
:1020F000F4DB601C84B200988442E6DBBDE8F88F14
:102100002DE9FF4F85B081468A4600200490039058
:102110000798A0EB09050898A0EB0A06CDF80890EF
:10212000CDF804A0002D01DD012705E00DB9002741
:1021300002E04FF0FF376D42002E02DD4FF0010844
:1021400006E016B94FF0000802E04FF0FF38764283
:10215000B54201DD2C4600E034464FF0000B21E093
:10216000019A91B2029A90B2FEF78FFB049828442C
:1021700004900398304403900498A04205DD04982D
:10218000001B04900298384402900398A04205DD99
:102190000398001B03900198404401900BF101004B
:1021A0001FFA80FB601C8345DADD09B0BDE8F08FC3
:1021B0002DE9F04104460D4616461F462B46324691
:1021C00029462046FFF79CFF3B46224629462046EB
:1021D000FFF796FF3B46324639462046FFF790FF11
:1021E0003B46324629463046FFF78AFFBDE8F0817C
:1021F0002DE9F04706460F46904600244546032049
:10220000A0EB48093CE07A1B91B2321990B2FEF77C
:102210003CFB3A1B91B2721990B2FEF736FB3A19A9
:1022200091B2721990B2FEF730FB7A1991B232195D
:1022300090B2FEF72AFB7A1991B2321B90B2FEF7E8
:1022400024FB3A1991B2721B90B2FEF71EFB7A1B67
:1022500091B2321B90B2FEF718FB3A1B91B2721B7F
:1022600090B2FEF712FB641CB9F1000F03DAA00074
:10227000801D814404E0601B80000A3081446D1E93
:10228000AC42C0DDBDE8F0872DE9F84F80460E4630
:1022900017461C46B3462046E31704EB5373DB1086
:1022A00021464FEAE47C04EB5C7C4FEAEC0CB4EB97
:1022B000CC0C02D04FF0010C01E04FF0000C634455
:1022C000224604EBD27C4FEA6C0C03FB0CF3DBB22E
:1022D0000093A7F12000C7B2002556E00C2C07D1CF
:1022E00007EB4700794901EB800010F8059013E0F7
:1022F000102C05D1764800EB071010F805900BE084
:10230000182C07D107EBC700724901EB800010F8C9
:10231000059001E0BDE8F88F4FF0000A2FE019F0BA
:10232000800F06D06C48028831464046FEF7BBFA63
:1023300007E00A9828B96948028831464046FEF706
:10234000B2FA4FEA49604FEA1069701C86B26448DD
:102350004088B04200DCDDE7A6EB0B00A0420AD1CA
:102360005E4608F101001FFA80F85D48008840458C
:1023700000DCCFE706E00AF1010000F0FF0ABAF145
:10238000080FCCDB00BF681CC5B200988542A5DBF6
:1023900000BFBFE710B50246012000E050430B002C
:1023A000A1F10104E1B2F9D110BD2DE9FF4F81B0D7
:1023B000074691461E460E9D4FF0000A002439E064
:1023C000301B401EC1B20A20FFF7E4FFB9FBF0F05A
:1023D0000A21B0FBF1F201FB1208BAF1000F16D18D
:1023E000701EA04213DDB8F1000F0ED10020AB46E5
:1023F00005EBDB71491001FB0471009088B22B469C
:1024000020220299FFF740FF12E04FF0010A00205E
:10241000AB4605EBDB71491001FB0471009088B2FB
:1024200008F13001CAB22B460299FFF72DFF00BF19
:10243000601CC4B2B442C3DB05B0BDE8F08F2DE927
:10244000FF4F83B0064692461F46DDE91048002044
:10245000029000255CE0781B401EC1B20A20FFF705
:1024600099FFBAFBF0F00A21B0FBF1F201FB12096F
:10247000029840BB781EA84236DDB9F1000F31D179
:1024800018F0800F0FD008F00100A34604EBDB71B9
:10249000491001FB0561009088B22346302204995F
:1024A000FFF7F2FE0EE008F00100A34604EBDB713B
:1024B000491001FB0561009088B22346202204994F
:1024C000FFF7E2FE22E00FE08000006C791D0020A3
:1024D000ED210020DD2700200C0000200E00002050
:1024E000589400200120029008F00100A34604EB5C
:1024F000DB71491001FB0561009088B209F13001E0
:10250000CAB223460499FFF7BFFE00BF681CC5B2DC
:10251000BD42A0DB07B0BDE8F08F2DE9FC5F0746A8
:102520000D46144698460026AA460197B34632E067
:1025300018F80690554606FB04F000EBD0714A10DF
:1025400001991144C74A128802FB1B118FB204EB98
:10255000D471C44A1288A2EB6101B9420ADA002799
:10256000281985B20AEB04001FFA80FA0BF101006A
:102570001FFA80FBBB484088A84201DCBDE8FC9FF5
:102580000C9809F0FF022346294600903846FFF7D1
:102590007BFE701C86B218F806000028C8D100BF68
:1025A000ECE72DE9F74F88B00C469246002600274D
:1025B00000200690039001E0701C86B21AF8060015
:1025C0000028F9D1A748008890FBF4F04FF6FF717E
:1025D00001EA400B96FBFBF096FBFBF10BFB116154
:1025E00009B1012100E00021084487B296FBF7F011
:1025F00007FB106030B196FBF7F007FB1060381A4C
:1026000085B200E0002596FBF7F00DB1012100E056
:10261000002108441FFA80F909FB04F101EBD17293
:10262000904B1B88A3EB620000EBD072C2F34F0209
:1026300007924FF000084BE008F1010292FBF7F21D
:10264000284605EBD0735B10A5EB4303EB1A03FBA5
:1026500004F1CB1701EB93734FEAA30C079B0CFB20
:10266000023292B2049208F1010090FBF7F005FBF0
:10267000109080B202900020069019E0039906980D
:1026800008441AF800000590002000902346DDE978
:1026900004020899FFF7F8FD204604EBD0714A10B8
:1026A0000499114489B204910698401C80B20690A6
:1026B000029906988842E1DB0898204480B208908D
:1026C0000398484480B2039008F101001FFA80F893
:1026D000B845B1DB0BB0BDE8F08F2DE9F05F0646E1
:1026E0000C4617469846A346002532E008EBC80082
:1026F00007EBC00010F805904FF0000A23E019F036
:10270000800F06D05848028821463046FEF7CBF8A5
:1027100007E00A9828B95548028821463046FEF756
:10272000C2F84FEA49604FEA1069601C84B2A4EB1A
:102730000B00182803D15C46701C86B206E00AF133
:10274000010000F0FF0ABAF1080FD8DB00BF681CD7
:10275000C5B2482DCADBBDE8F09F2DE9F74F86B022
:102760008346884600260025A94600200390464659
:102770003C480088182190FBF1F080B2019001984C
:1027800096FBF0F196FBF0F200FB126008B101201D
:1027900000E00020084485B296FBF5F005FB1060D0
:1027A00030B196FBF5F005FB1060281A84B200E00A
:1027B000002496FBF5F00CB1012100E00021084453
:1027C0001FFA80FA274909880AEB4A02A1EBC200E6
:1027D00000EBD071C1F34F01059100273DE07A1C59
:1027E00092FBF5F3204604EBD0725210A4EB4202A8
:1027F000A21A02EB4202D10001EBD1724FEA620C45
:10280000059A0CFB032292B20492781C90FBF5F01F
:1028100004FB10A080B202904FF0000910E00020ED
:1028200009F0FF0300905946089A0498FFF755FFF6
:102830000498183080B2049009F101001FFA80F961
:1028400002988145EBDB0BF118001FFA80FB03981F
:10285000504480B20390781C87B2AF42BFDB09B00E
:10286000BDE8F08F589400200C0000200E000020DE
:102870009FEDFE0AFE4880ED000A9FEDFC0A80ED08
:10288000010A9FEDFA0A80ED020A9FEDF80A80ED39
:10289000030A9FEDF60A80ED060A0020F4498883BA
:1028A0004FF4487008820020488288829FEDEF0A2A
:1028B000084680ED080A9FEDED0A80ED090A9FEDBC
:1028C000EB0A80ED0A0A9FEDE90A80ED0B0A9FED05
:1028D000E70A80ED0E0A002181874FF49671018688
:1028E000002141869621818670479FEDE00AE048ED
:1028F00080ED000A9FEDDD0A80ED010A9FEDDB0A05
:1029000080ED020A9FEDD90A80ED030A9FEDD70AF8
:1029100080ED060A0020D649888350200882962040
:10292000488288829FEDD10A084680ED080A9FED13
:10293000CF0A80ED090A9FEDCD0A80ED0A0A9FEDCE
:10294000CB0A80ED0B0A9FEDC90A80ED0E0A00212B
:1029500081874FF48C710186002141864FF4967176
:10296000818670479FEDC10AC14880ED000A9FED46
:10297000BF0A80ED010A9FEDBD0A80ED020A9FEDBE
:10298000BB0A80ED030A9FEDB90A80ED060A00201C
:10299000B74988834FF48C700882002048824FF436
:1029A000487088829FEDB10A084680ED080A9FEDC5
:1029B000AF0A80ED090A9FEDAD0A80ED0A0A9FED8E
:1029C000AB0A80ED0B0A9FEDA90A80ED0E0A0021EB
:1029D00081874FF48C710186002141864FF4487144
:1029E000818670479FEDA10AA14880ED000A9FED06
:1029F0009F0A80ED010A9FED9D0A80ED020A9FED7E
:102A00009B0A80ED030A9FED990A80ED060A0020DB
:102A1000974988834FF496700882002048824FF4CB
:102A2000F07088829FED910A084680ED080A9FEDBC
:102A30008F0A80ED090A9FED8D0A80ED0A0A9FED4D
:102A40008B0A80ED0B0A9FED890A80ED0E0A0021AA
:102A500081874FF4967101860021418640F226213C
:102A6000818670479FED810A814880ED000A9FEDC5
:102A70007F0A80ED010A9FED7D0A80ED020A9FED3D
:102A80007B0A80ED030A9FED790A80ED060A00209B
:102A9000774988834FF4C870088200204882888272
:102AA0009FED720A084680ED080A9FED700A80EDDE
:102AB000090A9FED6E0A80ED0A0A9FED6C0A80ED0F
:102AC0000B0A9FED6A0A80ED0E0A002181874FF400
:102AD000C8710186002141868186704710B52DEDB1
:102AE000028BB0EE408A044601F0B6F9614800EB73
:102AF000840090ED000A5E4800EB441080ED010A6E
:102B000000205D4908705A4800EB441090ED010A1E
:102B1000B5EEC00AF1EE10FA0DD2554800EB4410A4
:102B200090ED010AB1EE400A514800EB441080EDEF
:102B3000010A012008704E4800EB441080ED008A25
:102B40004E48007898B94B4800EB840090ED000A9D
:102B50004B4800EB8400D0ED000A20EE200AB5EED1
:102B6000C00AF1EE10FA02DD012044490870434822
:102B7000007801282DD13F4800EB840090ED000A39
:102B8000B5EEC00AF1EE10FA0AD23A4800EB840022
:102B900090ED000AB1EE400A3A4880ED000A07E0E5
:102BA000344800EB840090ED000A364880ED000ABE
:102BB000344890ED000A3448D0ED000A30EE600A47
:102BC000324880ED000A2F4890ED000A2E4880ED33
:102BD000000A2E4890ED000AB5EEC00AF1EE10FA98
:102BE00028D2234800EB441090ED000A2548D0ED90
:102BF000000A30EE600A264800EB840080ED000AEF
:102C00001B4800EB4410808B00EE100AB8EE400A1F
:102C1000174800EB4410D0ED020A30EE200ABCEE5B
:102C2000C00A10EE100A124901EB441188830020FB
:102C3000124908700E4800EB441090ED000A0C4851
:102C400000EB4410D0ED010A30EE600A084800EBBA
:102C5000441080ED020A064800EB4410408A044903
:102C600001EB4411898B484314E000000000000090
:102C70006894002064950020E43A0020E53A0020A2
:102C800058950020EC3A0020F03A0020F43A002059
:102C9000DC3A002000EE100AB8EEC00AFE4800EB55
:102CA0004410008A00EE900AF8EE600AFA4800EB41
:102CB000441090ED021A00EE810AF74800EB441030
:102CC000D0ED020AF44800EB441090ED031A30EE08
:102CD000C11AF14800EB4410808A00EE900AF8EE29
:102CE000600A00EE810AEC4800EB441080ED060A11
:102CF000E94800EB441090ED020AE74800EB44106D
:102D000080ED030AE44800EB441090ED060AE24827
:102D100000EB441080ED010ADF4800EB441090ED19
:102D2000010ABCEEC00A10EE100A80B2BDEC028BA4
:102D300010BD10B52DED028BB0EE408A044601F0B7
:102D40008BF8D64800EB840090ED000AD24800EBE7
:102D5000441080ED010AD04800EB441080ED008A59
:102D6000CD4800EB441090ED000ACB4800EB441036
:102D7000D0ED010A30EE600AC74800EB441080ED48
:102D8000020AC54800EB4410808B00EE100AB8EE32
:102D9000400AC14800EB4410D0ED020A30EE200A90
:102DA000BCEEC00A10EE100ABB4901EB4411888347
:102DB000B94800EB4410008A00EE100AB8EE400A51
:102DC000B54800EB4410D0ED020A20EE200AB248CC
:102DD00000EB4410D0ED020AAF4800EB441090ED38
:102DE000031A30EEC11AAC4800EB4410808A00EEA2
:102DF000900AF8EE600A00EE810AA74800EB441042
:102E000080ED060AA44800EB441090ED020AA248A7
:102E100000EB441080ED030A9F4800EB441090ED56
:102E2000060A9D4800EB441080ED010A9A4800EB29
:102E3000441090ED010ABCEEC00A10EE100A80B2F8
:102E4000BDEC028B10BD944890ED0E0AB5EEC00AA1
:102E5000F1EE10FA1BDD90ED0E0ADFED910AB4EEF3
:102E6000E00AF1EE10FA03DD9FED8D0A80ED0E0A07
:102E7000894890ED0E0ABCEEC00A10EE100A80B22E
:102E80008849086000208749083908602FE0824897
:102E900090ED0E0AB5EEC00AF1EE10FA21D290EDD7
:102EA0000E0AB1EE400A80ED0E0A90ED0E0ADFED3B
:102EB0007C0AB4EEE00AF1EE10FA03DD9FED780A29
:102EC00080ED0E0A002077490860734890ED0E0AE5
:102ED000BCEEC00A10EE100A80B2724908390860D0
:102EE00005E000206F4908606E49083908607047A6
:102EF0006A4890ED010A6C48D0ED010A20EE200AE4
:102F0000B5EEC00AF1EE10FA4FD2634890ED060A12
:102F1000B5EEC00AF1EE10FA1CDD90ED060ADFED09
:102F2000600AB4EEE00AF1EE10FA03DD9FED5C0AF0
:102F300080ED060A584890ED060ABCEEC00A10EE75
:102F4000100A80B25749091F0860002055490C3902
:102F5000086031E0504890ED060AB5EEC00AF1EE87
:102F600010FA29D290ED060AB1EE400A80ED060A69
:102F700090ED060ADFED4A0AB4EEE00AF1EE10FA2F
:102F800003DD9FED470A80ED060A00204549091F31
:102F90000860414890ED060ABCEEC00A10EE100A27
:102FA00080B240490C39086006E000203D49091F05
:102FB00008603C490C3908607047384890ED010AB8
:102FC0003948D0ED010A20EE200AB5EEC00AF1EE34
:102FD00010FA40D23548007801281CD12E4890EDD7
:102FE0000E0ADFED2F0AB4EEE00AF1EE10FA03DD6F
:102FF0009FED2B0A80ED0E0A274890ED0E0ABCEEDD
:10300000C00A10EE100A80B2264908390860002074
:103010002449086025E02548007810BB1E4890ED43
:103020000E0ADFED1F0AB4EEE00AF1EE10FA03DD3E
:103030009FED1B0A80ED0E0A00201A49083908602E
:10304000154890ED0E0ABCEEC00A10EE100A80B2D0
:103050001449086005E00020124908601149083948
:1030600008607047104890ED010AB5EEC00AF1EE15
:1030700010FA04DD0D480078C0430C4908700B4875
:10308000007801282AD1044890ED0E0ADFED040AE9
:10309000B4EEE00A0CE00000689400206495002083
:1030A00000C079444008004058950020E43A0020D0
:1030B000F1EE10FA03DD1FED060A80ED0E0AC4489A
:1030C00090ED0E0ABCEEC00A10EE100A80B2C149A3
:1030D00008600020BF490831086025E0BE4800783C
:1030E000E0B9BB4890ED0E0A5FED130AB4EEE00ABA
:1030F000F1EE10FA03DD1FED160A80ED0E0A002036
:10310000B4490860B24890ED0E0ABCEEC00A10EE59
:10311000100A80B2AF490831086005E00020AD49CF
:1031200008310860AB4908607047AC4890ED000A70
:10313000B5EEC00AF1EE10FA1CDDA54890ED0E0ABE
:103140005FED290AB4EEE00AF1EE10FA03DD1FED9F
:103150002C0A80ED0E0A9E4890ED0E0ABCEEC00AC5
:1031600010EE100A80B29B4908600020994908318E
:1031700008602AE0994890ED000AB5EEC00AF1EE29
:1031800010FA1CD2924890ED0E0A5FED3B0AB4EEA5
:10319000E00AF1EE10FA03DD1FED3F0A80ED0E0AA2
:1031A00000208C4908608A4890ED0E0ABCEEC00AE7
:1031B00010EE100A80B287490831086005E000204F
:1031C000844908310860834908607047834890ED5E
:1031D000000AB5EEC00AF1EE10FA1CD27C4890ED60
:1031E0000E0A5FED510AB4EEE00AF1EE10FA03DDCB
:1031F0001FED550A80ED0E0A754890ED0E0ABCEEE3
:10320000C00A10EE100A80B27249086000207149AD
:10321000083108602AE0714890ED000AB5EEC00A56
:10322000F1EE10FA1CDD6A4890ED0E0A5FED640ABB
:10323000B4EEE00AF1EE10FA03DD1FED670A80ED4F
:103240000E0A002063490860614890ED0E0ABCEE4A
:10325000C00A10EE100A80B25E490831086005E02D
:1032600000205C49083108605A49086070475B4893
:1032700090ED000A5A48D0ED000A20EE200AB5EE83
:10328000C00AF1EE10FA42D25348007801281DD14D
:103290004F4890ED060A5FED7E0AB4EEE00AF1EECB
:1032A00010FA03DD1FED820A80ED060A484890ED12
:1032B000060ABCEEC00A10EE100A80B24549091F8A
:1032C000086000204349091D086027E04248007853
:1032D00020BB3F4890ED060A5FED8F0AB4EEE00A8E
:1032E000F1EE10FA03DD1FED920A80ED060A0020D0
:1032F0003849091F0860364890ED060ABCEEC00A3E
:1033000010EE100A80B23349091D086006E06420FF
:103310003049091D08602F49091F0860704730486F
:1033200090ED000AB5EEC00AF1EE10FA04DD2A486D
:103330000078C043284908702748007801281DD12B
:10334000234890ED060A5FEDAA0AB4EEE00AF1EE1A
:1033500010FA03DD1FEDAE0A80ED060A1C4890ED61
:10336000060ABCEEC00A10EE100A80B21949091F05
:10337000086000201749091D086027E016480078FA
:10338000E8B9134890ED060A5FEDBB0AB4EEE00A17
:10339000F1EE10FA03DD1FEDBE0A80ED060A0020F3
:1033A0000C49091F08600A4890ED060ABCEEC00AE5
:1033B00010EE100A80B20749091D086006E064207B
:1033C0000449091D08600349091F0860704700008F
:1033D0006894002038080040E43A002064950020FA
:1033E0005895002010B50121404803F012FA012839
:1033F00005D13F480088FEF732FDFEF757FD012159
:103400003A4803F017FA10BD10B50121394803F00E
:1034100000FA0121374803F00DFA10BD10B5012163
:10342000354803F0F6F90121334803F003FA10BDE3
:1034300010B53249324803F05EFC01280FD1314803
:1034400000884FF4A571484340F6FF7190FBF1F0FE
:103450002749088029492A4803F076FC14E02A49C4
:10346000274803F048FC012804D12749244803F0E9
:103470006BFC09E02549224803F03DFC012803D1FB
:1034800022491F4803F060FC10BD10B540F22551E1
:103490001F4803F05DFE38B31D4803F097FD1D493A
:1034A0001D4A127888541C48007820B908460078D4
:1034B000552800D010BD18480078401C16490870E7
:1034C000084600780B280FD1144812490A68026098
:1034D0004A6842600A890281897A817200200E4915
:1034E000087001200E49087000BFE3E70014004097
:1034F0005858002000400140000C0040208000107F
:10350000106402400000002010400010082000104D
:1035100000140140E89400204893002034950020D6
:103520005D93002010B5FA4A0B214FF49670FFF717
:1035300014F9F84A02214FF4F070FFF70EF9F64A39
:10354000072140F2F910FFF708F910BD08B5FDF7A3
:1035500059FAEF4A0B216420FFF7FFF8ED4A0221E8
:103560008220FFF7FAF840F2FF70EC490880002053
:10357000EBA318224FF4967100901420FEF7CDFFB4
:103580000020EBA318224FF4AE7100901420FEF738
:10359000C4FF0020EAA318224FF4C6710090142043
:1035A000FEF7BBFF0020EAA318224FF4DE71009063
:1035B0001420FEF7B2FF44F2FF10D8490880002023
:1035C000E7A318224FF496710090FE20FEF7A5FFA6
:1035D0000020E8A318224FF4AE710090FE20FEF701
:1035E0009CFF0020E8A318224FF4C6710090FE2033
:1035F000FEF793FF0020E9A318224FF4DE7100903C
:10360000FE20FEF78AFF4FF4FC60C4490880E8A260
:1036100018214FF42F70FEF7C4FF4FF4FC60BF4930
:10362000088008BD08B5FDF7EDF94FF6F730BB4946
:103630000880DFA218211E20FEF7B3FF0020DEA3C2
:1036400018221E2100904FF4B470FEF766FF4FF46D
:1036500042734FF4E4723C211820FEF7A9FD4FF6A7
:10366000FF70AE4908800020D6A3182248210090A0
:103670002420FEF752FF0020D5A3182260210090DD
:103680002420FEF74AFF4FF4FC60A449088008BDDF
:1036900008B5FDF7B7F940F2FF70A0490880A0A275
:1036A00018211E20FEF77DFF4FF442734FF4E472A1
:1036B0003C211820FEF77CFD4FF6E070974908800A
:1036C0000020C6A31822602100902420FEF725FFC9
:1036D0000020CAA31822782100902420FEF71DFFA5
:1036E0000020CFA31822902100902420FEF715FF80
:1036F0000020D6A31822C82100902420FEF70DFF39
:103700000020D5A31822E02100902420FEF705FF19
:103710000020D4A31822F82100902420FEF7FDFEFB
:103720004FF4FC607D49088008BD08B5FDF76AF9D3
:1037300040F2FF70794908807DA218211E20FEF713
:1037400030FF4FF442734FF4E4723C211820FEF72F
:103750002FFD4FF6E070714908800020C4A31822A5
:10376000602100902420FEF7D8FE0020C9A3182273
:10377000782100902420FEF7D0FE0020A8A3182274
:10378000902100902420FEF7C8FE0020C3A3182239
:10379000C82100902420FEF7C0FE0020C3A31822F9
:1037A000E02100902420FEF7B8FE0020C3A31822D9
:1037B000F82100902420FEF7B0FE0020C3A31822B9
:1037C0004FF4887100902420FEF7A7FE4FF4FC60B0
:1037D0005249088008BD08B5FDF714F940F2FF70A2
:1037E0004E49088056A218211E20FEF7DAFE4FF43B
:1037F00042734FF4E4723C211820FEF7D9FC4FF6D7
:10380000E070464908800020B4A31822602100908F
:103810002420FEF782FE0020B8A318227821009011
:103820002420FEF77AFE0020BFA31822C8210090B2
:103830002420FEF772FE0020C0A31822E021009091
:103840002420FEF76AFE0020C1A31822F821009070
:103850002420FEF762FE0020C2A318224FF48871D4
:1038600000902420FEF759FE4FF4FC602B4908809D
:1038700008BD08B5FDF7C6F840F2FF70274908807B
:1038800033A218211E20FEF78CFE4FF442734FF432
:10389000E4723C211820FEF78BFC4FF6E0701F49C4
:1038A00008800020B4A31822602100902420FEF795
:1038B00034FE0020B9A31822782100902420FEF7BE
:1038C0002CFE0020BDA31822902100902420FEF79A
:1038D00024FE002094A31822C82100902420FEF783
:1038E0001CFE00209AA31822F82100902420FEF745
:1038F00014FE00209BA318224FF48871009024200E
:10390000FEF70BFE4FF4FC600449088008BD000080
:103910002070002038730020C87300200C000020A5
:10392000426173652046756E6374696F6E20310065
:10393000426173652046756E6374696F6E20320054
:10394000426173652046756E6374696F6E20330043
:10395000426173652046756E6374696F6E20340032
:10396000496D70726F76652046756E6374696F6E0F
:1039700020310000496D70726F76652046756E6368
:1039800074696F6E20320000496D70726F76652029
:1039900046756E6374696F6E20330000496D7072F6
:1039A0006F76652046756E6374696F6E2034000013
:1039B0004D454D5500000000543A20202020204362
:1039C000000000004465627567202020207C000014
:1039D0004E524632344C3031207C00004F6E207401
:1039E00068652067726F756E6420746F2064726101
:1039F0007720616C656E67740000000073686F72F9
:103A0000746572207468616E203530636D206F6656
:103A1000206C696E65207365676D656E74732C002C
:103A20006572726F7220322E35636D2C20616E6468
:103A3000207769746820676F6F6420726570726F99
:103A40006475636962696C6974792E00537461747A
:103A50007573203A00000000416E676C6520203AC3
:103A6000000000006C656E677468203A000000007A
:103A700053686F776E20696E207468652033302D2F
:103A80003630636D206C656E6774682063616E20EC
:103A9000626500007365742C00000000537461744B
:103AA0007573202020202020203A0000676F616C71
:103AB000206C656E67746820203A0000416E676C68
:103AC0006520202020202020203A00006C656E67B1
:103AD0007468202020202020203A000053657420A4
:103AE00074686520646972656374696F6E206F66BF
:103AF00020746865207377696E672C006472617743
:103B00002061207374726169676874206C696E65E6
:103B1000206E6F74206C657373207468616E203240
:103B200030636D2E000000005374617475732020A3
:103B3000202020202020203A00000000676F616CC8
:103B400020646972656374696F6E203A000000003A
:103B5000416E676C65202020202020202020203A04
:103B6000000000006C656E67746820202020202013
:103B70002020203A000000005468652077696E64B8
:103B80002070756C6C656420617420616E20616EBC
:103B9000676C65207377696E670000002833302DED
:103BA000343529206F70656E2077697468696E20DE
:103BB00035207365636F6E6473000000736F20744B
:103BC000686174207468652077696E642073776912
:103BD0006E67206272616B650000000008B5FCF73B
:103BE00011FF44F2FF1074490880AFF28C221821B3
:103BF0001E20FEF7D6FC4FF442734FF4E4723C21D2
:103C00001820FEF7D5FA4FF6E0706B4908800020C7
:103C10006AA31822602100902420FEF77EFC002079
:103C20006EA31822782100902420FEF776FC002055
:103C300073A31822902100902420FEF76EFC002030
:103C400077A31822A82100902420FEF766FC00200C
:103C5000AFF22C131822C82100902420FEF75DFC3F
:103C6000002073A31822F82100902420FEF755FCB1
:103C7000002074A318224FF4887100902420FEF7CE
:103C80004CFC96229100F020FEF7B2FA4FF4FC6053
:103C90004949088008BD08B5FCF7B4FE44F2FF109E
:103CA00045490880AFF2343218211E20FEF779FC16
:103CB0004FF442734FF4E4723C211820FEF778FA77
:103CC0004FF6E0703C49088000203CA31822602198
:103CD00000902420FEF721FC002040A31822782128
:103CE00000902420FEF719FC002045A31822902103
:103CF00000902420FEF711FC002049A31822A821DF
:103D000000902420FEF709FC0020AFF2E4131822F3
:103D1000C82100902420FEF700FC002044A31822B4
:103D2000F82100902420FEF7F8FB002045A318227C
:103D30004FF4887100902420FEF7EFFB962291004B
:103D4000F020FEF755FA4FF4FC601B49088008BDCF
:103D500010B5FCF757FE44F2FF1017490880AFF288
:103D6000D83218211E20FEF71CFC4FF442734FF48A
:103D7000E4723C211820FEF71BFA4FF4FC600E4958
:103D8000088010BD10B5FCF73DFE44F2FF100A4953
:103D90000880AFF2F83218211E20FEF702FC4FF423
:103DA00042734FF4E4723C211820FEF701FA4FF4FD
:103DB000FC600149088010BD0C0000205365742090
:103DC0007261646975732031352D3335636D2072EE
:103DD0006F756E642C206C6173657200706F696E14
:103DE00074657220746F2064726177207468652036
:103DF000747261636B2C2072657065617465640018
:103E000074687265652074696D657320776974687C
:103E1000696E203330207365636F6E64732C00000D
:103E20006572726F7220322E35636D2E00000000B5
:103E30005365742052616469757320202020203AF4
:103E4000000000005261646975732020202020204A
:103E50002020203A0000000000B52DED068B83B035
:103E6000C9E2FE4801680091416801910189ADF8FD
:103E70000810807A8DF80A000020F9490870F74888
:103E800000785528ECD1F5484078512804D05228C4
:103E90007ED053287DD1A4E19DF802109DF8032027
:103EA00041EA022108B204F05DF841EC100BB0EEDB
:103EB00040AAF0EE60AA9FEDEB0B53EC102B51ECF7
:103EC0001A0B03F0E0FF41EC100BB0EE409AF0EE5D
:103ED000609A9FEDE60B53EC102B51EC190B03F09D
:103EE00060FF41EC100BB0EE408AF0EE608A51ECBE
:103EF000180B04F068F8DF4908609DF804109DF87D
:103F0000052041EA022108B204F02CF841EC100B24
:103F1000B0EE40AAF0EE60AA9FEDD20B53EC102B4E
:103F200051EC1A0B03F0AFFF41EC100BB0EE409ACE
:103F3000F0EE609A9FEDCD0B53EC102B51EC190B6A
:103F400003F02FFF41EC100BB0EE408AF0EE608AD8
:103F500051EC180B04F037F8C64948609DF806107C
:103F60009DF8072041EA022108B203F0FBFF41EC73
:103F7000100BB0EE40AAF0EE60AA9FEDBA0B53EC26
:103F8000102B51EC1A0B03F07EFF41EC100B01E0FB
:103F90004AE02EE2B0EE409AF0EE609A9FEDB30B4D
:103FA00053EC102B51EC190B03F0FBFE41EC100B02
:103FB000B0EE408AF0EE608A51EC180B04F003F882
:103FC000AC4988609DF808109DF8092041EA02215B
:103FD00008B203F0C7FF41EC100BB0EE40AAF0EEC0
:103FE00060AA9FEDA50B53EC102B51EC1A0B03F0BC
:103FF0004AFF41EC100BB0EE409AF0EE609A9FED54
:10400000A00B53EC102B51EC190B03F023FE41ECE9
:10401000100BB0EE408AF0EE608A51EC180B03F002
:10402000D2FF99490860E5E19DF802109DF8032050
:1040300041EA022108B203F095FF41EC100BB0EE0B
:1040400040AAF0EE60AA9FED870B53EC102B51ECC9
:104050001A0B03F018FF41EC100BB0EE409AF0EE93
:10406000609A9FED8A0B53EC102B51EC190B03F067
:1040700098FE41EC100BB0EE408AF0EE608A51ECF5
:10408000180B03F0A0FF834908609DF804109DF809
:10409000052041EA022108B203F064FF41EC100B55
:1040A000B0EE40AAF0EE60AA9FED6E0B53EC102B21
:1040B00051EC1A0B03F0E7FE41EC100BB0EE409A06
:1040C000F0EE609A9FED710B53EC102B51EC190B35
:1040D00003F067FE41EC100BB0EE408AF0EE608A10
:1040E00051EC180B03F06FFF6A4948609DF8061009
:1040F0009DF8072041EA022108B203F033FF41ECAA
:10410000100BB0EE40AAF0EE60AA9FED560B53ECF8
:10411000102B51EC1A0B03F0B6FE41EC100BB0EE75
:10412000409AF0EE609A9FED590B53EC102B51EC36
:10413000190B03F036FE41EC100BB0EE408AF0EEA6
:10414000608A51EC180B03F03EFF524988605248D8
:104150000078A0B1084690ED000A5048D0ED000A62
:1041600030EE600A084680ED000A90ED010A4C48E6
:10417000D0ED000A30EE600A084680ED010A9DF895
:1041800008109DF8092041EA022108B203F0EAFE76
:1041900041EC100BB0EE40AAF0EE60AA9FED360B9A
:1041A00053EC102B51EC1A0B03F06DFE41EC100B8D
:1041B000B0EE409AF0EE609A9FED310B53EC102B6D
:1041C00051EC190B03F046FD41EC100BB0EE408AA8
:1041D000F0EE608A51EC180B03F0F5FE2A490860F6
:1041E00008E19DF802109DF8032041EA022108B27F
:1041F00003F0B8FE41EC100BB0EE40AAF0EE60AA5E
:104200009FED180B53EC102B51EC1A0B03F03BFEF7
:1042100041EC100BB0EE409AF0EE609A9FED210B4E
:1042200053EC102B51EC190B03F0BBFD41EC100BC0
:10423000B0EE408AF0EE608A51EC180B03F0C3FE3A
:104240001A4908609DF804109DF8052041EA0221F2
:1042500008B203F087FE41EC100B29E034950020F2
:104260005D930020000000000000E040000000001E
:10427000000030404C9500200000000000407540D8
:104280000000000000204240609300200000000079
:1042900000409F40589500204993002054930020EF
:1042A00058930020000000000080664064950020C4
:1042B000B0EE40AAF0EE60AA1FED160B53EC102BE7
:1042C00051EC1A0B03F0DFFD41EC100BB0EE409AFD
:1042D000F0EE609A1FED0D0B53EC102B51EC190B07
:1042E00003F05FFD41EC100BB0EE408AF0EE608A07
:1042F00051EC180B03F067FEFE4948609DF806106C
:104300009DF8072041EA022108B203F02BFE41ECA0
:10431000100BB0EE40AAF0EE60AA1FED2E0B53EC8E
:10432000102B51EC1A0B03F0AEFD41EC100BB0EE6C
:10433000409AF0EE609A1FED250B53EC102B51ECD8
:10434000190B03F02EFD41EC100BB0EE408AF0EE9D
:10435000608A51EC180B03F036FEE64988609DF840
:1043600008109DF8092041EA022108B203F0FAFD85
:1043700041EC100BB0EE40AAF0EE60AA1FED420B2C
:1043800053EC102B51EC1A0B03F07DFD41EC100B9C
:10439000B0EE409AF0EE609A1FED470B53EC102BF5
:1043A00051EC190B03F056FC41EC100BB0EE408AB7
:1043B000F0EE608A51EC180B03F005FECE49086060
:1043C000CE480078A0B1CB4890ED000ACC48D0EDA3
:1043D000000A30EE600AC74880ED000A90ED010A3D
:1043E000C848D0ED000A30EE600AC24880ED010AEC
:1043F00000E000BF00BFC448007800287FF431AD62
:1044000003B0BDEC068B00BD10B500242EE0FFF715
:1044100023FDB84890ED000AB948D0ED000A30EE0F
:10442000200A80ED000AB34890ED010AB548D0EDAE
:10443000000A30EE200A80ED000AB44890ED000A30
:10444000B348D0ED000A30EE200A80ED000AAF48F4
:1044500090ED010AAF48D0ED000A30EE200A80ED61
:10446000000A0A2000F061FF601CC4B20A2CCEDBF7
:10447000A44890ED000AF2EE040A80EE201A80EDC6
:10448000001A9F4890ED000AF2EE040A80EE201A0E
:1044900080ED001A9E4890ED000AF2EE040A80EECC
:1044A000201A80ED001A9B4890ED000AF2EE040AF3
:1044B00080EE201A80ED001A01209049087010BD8E
:1044C00010B500220121944802F08CF9FEF7D0F9D2
:1044D000FBF758FFFFF798FFFCF702F800BF8F4883
:1044E00000680028FBD040F2E7308D4908604FF0AB
:1044F000FA0000F01AFF10BD10B5FFF7ADFC002068
:104500009FED880AFEF7EAFAFEF7B1FE10BD10B57E
:104510000AE0FFF7A1FC01209FED830AFEF709FCEA
:10452000FEF791FCFFF7E8FF724890ED000AF3EE0A
:10453000000AB4EEE00AF1EE10FA08D290ED000A9B
:10454000FBEE000AB4EEE00AF1EE10FAE1DC694895
:1045500090ED000AF2EE0E0AB4EEE00AF1EE10FA67
:1045600008DC90ED000AFAEE0E0AB4EEE00AF1EE75
:1045700010FA02D200206D4908604FF00000B3EE3F
:10458000010AFEF7ABFAFEF772FE10BD10B500206F
:104590006349091D086062490C3108606049086080
:1045A0005F4908310860012060490860FDF781FB20
:1045B00010BD10B5FFF784FF01E0FFF7A8FF5748D3
:1045C00000680028F9D0FFF7E1FF10BD00B587B003
:1045D0001E205749087048E056480078372808DD03
:1045E00053480078401C52490870322051490870E5
:1045F00025E050480078232808DA4D480078401E0E
:104600004B49087032204B49087018E04A4800783E
:10461000372808DD464800780A30454908703220BE
:10462000454908700BE0444800782D2807DA4048D7
:1046300000780A383E49087032203F4908703C48EB
:1046400002783EA102A803F055FE00203CA31822E8
:10465000E0210090CC20FDF760FF002002AB182283
:10466000E0210090CC20FDF758FF37480078002863
:10467000B2D007B000BD10B52DED088BFFF7A6FF37
:104680002B49087800EBD0714910294A117000229B
:104690000121214802F0A6F8FEF727F9FBF772FE88
:1046A000FFF7B2FEFBF71CFF2148007803F06BFC1C
:1046B00041EC100BB0EE40BAF0EE60BA9FED231B58
:1046C00003F0BAFFB0EE40AAF0EE60AA9FED210B16
:1046D00053EC102B51EC1A0B03F063FB41EC100B65
:1046E000B0EE409AF0EE609A9FED1C0B53EC102B4D
:1046F00038E000006495002060930020499300207A
:104700004C930020509300205D930020589500208A
:1047100054930020589300200014004000024042AF
:10472000340800400000A04200000000988242428D
:1047300028930020751D0020761D002025640000B0
:104740002020202000000000771D00200000000035
:104750000000564000000000008066401F85EB51BD
:10476000B81E094051EC190B03F08DFB41EC100B06
:10477000B0EE408AF0EE608A51EC180B03F023FC97
:10478000F949086000BFF94800680028FBD040F2F2
:10479000E730F74908604FF0FA0000F0C6FD0FE07F
:1047A000FFF75AFB01201FED200AFEF7C2FAFEF7C1
:1047B0004AFB00201FED250AFEF790F9FEF757FD92
:1047C000E94890ED000AF7EE080A80EE201AE94861
:1047D00090ED000AB4EEC01AF1EE10FA10DDE248D6
:1047E00090ED000AB1EE400AF7EE080A80EE201ABA
:1047F000E04890ED000AB4EEC01AF1EE10FACFD303
:1048000037E0FFF729FBDB4890ED000AD648D0EDF2
:10481000000AB4EEE00AF1EE10FA03DD3720D649C3
:10482000088202E05520D4490882FFF765FE012086
:104830001FED430AFEF77DFAFEF705FBCD4890ED2C
:10484000000AC948D0ED000AB4EEE00AF1EE10FA11
:104850000CDCC84890ED000AC348D0ED000AF1EE28
:10486000600AB4EEE00AF1EE10FA02D20020C34969
:104870000860C04890ED000ABB48D0ED000AB4EED5
:10488000E00AF1EE10FA0CD2BA4890ED000AB648F0
:10489000D0ED000AF1EE600AB4EEE00AF1EE10FA93
:1048A000AFDCBDEC088B10BD10B5FFF7D5FA0120C9
:1048B0001FED630AFEF73DFAFEF7C5FA0020AA498C
:1048C00091ED000AFEF70AF9FEF7D1FC10BD10B514
:1048D0000020A749091D0860A5490C310860A449BA
:1048E0000860A34908310860FDF7E3F910BD10B571
:1048F000FFF7C1FE01E0FFF7D7FF9C4800680028E2
:10490000F9D0FFF7E4FF10BD00B52DED028B87B0A5
:104910001FED7B0A9A4880ED000A66E0994800780E
:1049200037280CDD964890ED000AF7EE000A30EECD
:10493000200A80ED000A32209249087031E0914847
:1049400000782D280CDA8E4890ED000AF7EE000A68
:1049500030EE600A80ED000A32208A49087020E0BB
:104960008948007837280CDD854890ED000AF2EE82
:10497000040A30EE200A80ED000A322082490870D5
:104980000FE0814800782D280BDA7D4890ED000A71
:10499000F2EE040A30EE600A80ED000A32207A4915
:1049A00008707748006803F0FBFA41EC100BB0EE9A
:1049B000408AF0EE608A53EC182B74A102A803F031
:1049C00099FC0020AFF288231822E0210090E42017
:1049D000FDF7A3FD002002AB1822E0210090E420A7
:1049E000FDF79BFDC82000F0A0FC6A480078002875
:1049F00094D007B0BDEC028B00BD10B52DED068B39
:104A0000FFF782FF00220121634801F0EBFEFDF772
:104A1000A9FFFBF7B7FCFFF7F7FCFBF761FD584870
:104A200090ED000AB5EEC00AF1EE10FA07D290ED53
:104A3000000ADFED5A0A30EE200A80ED000A1FED71
:104A4000BD1B9FED570B03F0F7FDB0EE40AAF0EE53
:104A500060AA1FEDC00B53EC102B51EC1A0B03F0A6
:104A6000A0F941EC100BB0EE409AF0EE609A1FED09
:104A7000C50B53EC102B51EC190B03F004FA41EC6D
:104A8000100BB0EE408AF0EE608A51EC180B03F088
:104A90009AFA354908603A4890ED000ADFED3F0A7E
:104AA00080EE201A11EE104A204603F079FA41EC0C
:104AB000100BB0EE409AF0EE609A1FEDD80B53EC5D
:104AC000102B51EC190B03F06CF941EC100BB0EE0C
:104AD000408AF0EE608A51EC180B03F074FA324908
:104AE000086000BF214800680028FBD040F2E73092
:104AF0001F4908604FF0FA0000F017FCBDEC068B70
:104B000010BD10B51E4890ED000AB5EEC00AF1EEDA
:104B100010FA08D090ED000ADFED200AB4EE600A2A
:104B2000F1EE10FA0AD1FFF797F901200E4991ED45
:104B3000000AFDF7D3FFFEF740FA71E0104890ED50
:104B4000000ADFED1A0AB4EE600AF1EE10FA2FD176
:104B5000FFF782F90020044991ED000AFDF7BEFF3E
:104B6000FEF785FB5CE00000249300200002404239
:104B70003408004064950020F4940020988242425A
:104B80002C930020751D0020761D0020252E3266F6
:104B900000000000771D0020001400400000344396
:104BA0000000000000002E40449300200000B442AA
:104BB000FFF752F90020F64991ED000AFDF78EFF4C
:104BC000FEF755FB0120B0EE480AFDF787FFF148DC
:104BD00090ED000AB5EEC00AF1EE10FA0BDD90ED93
:104BE000000A5FED0E0AB4EEE00AF1EE10FA02D20E
:104BF000FEF79BFA14E0E74890ED000A5FED150A16
:104C0000B4EEE00AF1EE10FA0ADD90ED000A5FED75
:104C10001D0AB4EEE00AF1EE10FA01D2FEF7D6FA60
:104C2000DD4890ED010AB4EEC80AF1EE10FA09DD94
:104C300090ED000AD648D0ED000AB4EEE00AF1EE9D
:104C400010FA13DCD44890ED010AF1EE480AB4EEF4
:104C5000E00AF1EE10FA0CD290ED000ACC48D0ED4B
:104C6000000AB4EEE00AF1EE10FA02D20020CB49BD
:104C7000086010BD10B50020C9490860C849083156
:104C80000860C749091F0860C549091D0860FDF78C
:104C900010F810BD10B5FFF7B0FE01E0FFF731FFCF
:104CA000C04800680028F9D0FFF7E4FF10BD10B538
:104CB00000220121BC4801F095FDFDF793FEFBF7B2
:104CC00061FBFFF7A1FBFBF70BFC00BFB5480068D9
:104CD0000028FBD04FF4C87000F027FB10BD10B5C2
:104CE000FFF7BAF801209FEDB10AFEF722F8FEF7B0
:104CF000AAF800209FEDAD0AFEF71BF8FEF7F8F8C2
:104D0000AB4890ED000AFEEE000AB4EEE00AF1EEC8
:104D100010FA42DD90ED000AF6EE000AB4EEE00A69
:104D2000F1EE10FA39D290ED010AFEEE000AB4EE6F
:104D3000E00AF1EE10FA30DD90ED010AF6EE000A1D
:104D4000B4EEE00AF1EE10FA27D2934890ED000A93
:104D5000FEEE000AB4EEE00AF1EE10FA1DDD90ED71
:104D6000000AF6EE000AB4EEE00AF1EE10FA14D2F0
:104D700090ED010AFEEE000AB4EEE00AF1EE10FA40
:104D80000BDD90ED010AF6EE000AB4EEE00AF1EE5A
:104D900010FA02D200208149086010BD10B5002031
:104DA0007F4908607E49083108607D49091F086015
:104DB0007B49091D0860FCF77CFF10BD10B5FFF7AB
:104DC00076FF01E0FFF78BFF764800680028F9D0F6
:104DD000FFF7E4FF10BD00B587B00F2075490870DC
:104DE0004DE075480078372808DD72480078401C8F
:104DF0007049087032207049087025E06E480078CC
:104E00002D2808DA6B480078401E6A490870322065
:104E10006949087018E069480078372808DD654856
:104E200000780A30634908703220644908700BE04A
:104E3000624800782D2807DA5E4800780A385D4914
:104E4000087032205D4908705A480278AFF2147138
:104E500002A803F04FFA0020AFF21C731822E021E1
:104E60000090E420FDF759FB002002AB1822E0215E
:104E70000090E420FDF751FB642000F056FA504802
:104E800000780028ADD007B000BD10B52DED088B1F
:104E9000FFF7A1FF00220121434801F0A3FCFDF729
:104EA000E1FDFBF76FFAFFF7AFFAFBF719FB00BF65
:104EB0003C4800680028FBD04FF4C87000F035FA79
:104EC0003C48007803F05FF841EC100BB0EE40BABC
:104ED000F0EE60BA9FED3B1B03F0AEFBB0EE40AAD4
:104EE000F0EE60AA9FED390B53EC102B51EC1A0B2E
:104EF00002F057FF41EC100BB0EE409AF0EE609AD2
:104F00009FED340B53EC102B51EC190B02F0BBFF4F
:104F100041EC100BB0EE408AF0EE608A51EC180BB9
:104F200003F051F81A4908600FE0FEF795FF0120E1
:104F30009FED2A0AFDF7D2FDFEF73FF800209FED16
:104F4000270AFDF7CBFDFEF792F9134890ED000A12
:104F50000F48D0ED000AB0EE001A70EEC10AB4EEB0
:104F6000E00AF1EE10FA10D20B4890ED000A084862
:104F7000D0ED000AF1EE600AB0EE001A70EE810A80
:104F8000B4EEE00AF1EE10FACFDCBDEC088B10BDF8
:104F9000249300202C9300206495002098824242A4
:104FA00038080040000240420014004000000000A9
:104FB0005895002030930020751D0020761D00209C
:104FC000771D002000000000000056400000000097
:104FD000008066401F85EB51B81E09400000A042CA
:104FE00010B5FEF739FF0020284991ED000AFDF7C2
:104FF00075FDFEF73CF90120244991ED000AFDF70B
:105000006DFDFDF7DAFF224890ED000AF1EE680A27
:10501000B4EEE00AF1EE10FA19DD90ED000AB4EEFC
:10502000E80AF1EE10FA12D290ED010AF1EE480A08
:10503000B4EEE00AF1EE10FA09DD90ED010AB4EEEB
:10504000C80AF1EE10FA02D200201249086010BD21
:1050500010B50020104908600F49083108600E495A
:10506000091F08600C49091D0860FCF722FE10BDED
:1050700010B5FFF70AFF01E0FFF7B2FF074800682D
:105080000028F9D0FFF7E4FF10BD000024930020B2
:105090006495002098824242380800400002404255
:1050A000704700BFFEE700BFFEE700BFFEE700BF9E
:1050B000FEE7704770477047704700000CB500204E
:1050C000019000907548006840F480307349086092
:1050D00000BF7248006800F4003000900198401C46
:1050E0000190009818B90198B0F5A04FF1D16B4824
:1050F000006810F4003F02D00120009001E0002081
:1051000000900098012845D164484030006840F084
:1051100080506249403108606148006840F4404076
:105120005F4908605D48083000685C4908310860E4
:105130000846006840F4004008600846006840F4F3
:10514000A05008605748091F0860081F006840F019
:105150008070091F086000BF5048006810F0007F91
:10516000FAD040F20570504908604C480830006899
:1051700020F003004949083108600846006840F003
:105180000200086000BF45480830006800F00C00CD
:105190000828F8D10CBD10B54448006840F47000F0
:1051A000424908603D48006840F001003B49086002
:1051B00000203A4908310860384800683C490840F6
:1051C000364908603B48091D0860081F006820F444
:1051D0008020091F0860002030490C310860FFF76B
:1051E0006DFF4FF0006031498039086010BD70B527
:1051F00000200022022300240221284D08352D68BA
:1052000005F00C0020B1042806D0082834D107E0AE
:10521000294D2A4E356033E0294D284E35602FE068
:105220001E4D2D1D2D68C5F380541C4D2D1D2D6860
:1052300005F03F0154B1224DB5FBF1F5174E361D77
:105240003668C6F3881605FB06F209E01A4DB5FB71
:10525000F1F5124E361D3668C6F3881605FB06F2C8
:105260000E4D2D1D2D68C5F301456D1C6B00B2FB65
:10527000F3F5124E356003E00F4D104E356000BF60
:1052800000BF064D08352D68C5F303150D4E705D42
:105290000A4D2D68C540094E356070BD003802408A
:1052A0000070004019544007003C024088ED00E0C7
:1052B000FFFFF6FE103000240024F4006493002069
:1052C00000127A006893002010B56FF0040000F01F
:1052D0001CFD244800682449B0FBF1F023490880F4
:1052E000204800684FF4FA51B0FBF1F02049086003
:1052F00010BD01B51D4A1288009951434FF0E022BC
:105300005161002191610121116100BF4FF0E02145
:10531000086910F0010F02D010F4803FF6D0002190
:105320004FF0E0221161916108BD01B5BDF8001098
:105330000F4A126851434FF0E02251610021916100
:105340000121116100BF4FF0E021086910F0010F49
:1053500002D010F4803FF6D000214FF0E02211611E
:10536000916108BD6493002000127A0078930020B8
:105370007C930020F948006840F00100F74908607C
:105380000020F64908310860F4480068F4490840F4
:10539000F2490860F348091D0860F348EF49843179
:1053A0000860F0481038091D0860EC48006820F4D7
:1053B0008020EA4908600020E8490C310860E7498C
:1053C0008C31086070470021E44A921C117011462C
:1053D0000870704710B501460022002300204A11D2
:1053E000012A02D1DD4C236808E0022A03D1DB4CFC
:1053F0007034236802E0D94C7434236801F01F0232
:10540000012494401C4201D0012000E0002010BD86
:1054100038B5002000900024002500BF3120FFF7A0
:10542000D9FF05460098401C00900098B0F5A04FA9
:1054300001D0002DF2D03120FFF7CCFF08B10124BC
:1054400000E00024204638BD01460020C34A106811
:1054500020F0F80040EAC10010607047C3490860BE
:1054600070470021BD4A703211701170012802D0BE
:1054700004280AD104E00121B84A7032117005E015
:105480000521B64A7032117000E000BF00BF7047BE
:10549000B7490860704770B5049C41EA821501263F
:1054A000C6EB530645EA0645054345EA0465AB4E9F
:1054B000361D356070BDAD4908667047820142EA0D
:1054C0000172A64B84331A607047A84988667047FA
:1054D00010B5830143EA016343EA02739F4C8834A9
:1054E000236010BDA14908677047A049C864704790
:1054F00002460020994B0833186820F0EC6042EA1D
:1055000001031843954B083318607047024600208A
:10551000924B0833186820F0784042EA01031843A0
:105520008E4B083318607047014600208B4A0832C2
:10553000106820F003000843106070478748083067
:10554000006800F00C00704701460020834A0832D2
:10555000106820F0F00008431060704701460020FA
:105560007E4A0832106820F4E0500843106070470B
:1055700001460020794A0832106820F4604040EA71
:10558000C10010607047F0B5002100220024022500
:1055900000260223714F08373F6807F00C0121B144
:1055A000042905D0082937D105E0724F076036E09D
:1055B000714F076033E0694F3F1D3F68C7F3805666
:1055C000664F3F1D3F6807F03F036EB16A4FB7FB60
:1055D000F3F7DFF888C10CF1040CDCF800C0CCF361
:1055E000881C07FB0CF40CE0624FB7FBF3F7DFF805
:1055F0006CC10CF1040CDCF800C0CCF3881C07FB78
:105600000CF4564F3F1D3F68C7F301477F1C7D00D8
:10561000B4FBF5F7076002E0564F076000BF00BF1C
:105620004E4F08373F6807F0F0010909534F7A5C85
:105630000768D7404760494F08373F6807F4E05193
:10564000890A4E4F7A5C4768D7408760434F0837D6
:105650003F6807F46041490B484F7A5C4768D74080
:10566000C760F0BD002100F44072B2F5407F0AD15E
:105670003A4A0832116821F4F811414A02401143B4
:10568000364A08321160354A70321268C0F30B0393
:105690001A43324B70331A607047354944390860F9
:1056A0007047334940390860704736490860704791
:1056B00001460020294A8C32106820F01F004A1E43
:1056C0001043264A8C321060704701460020234A5E
:1056D0008C32106820F4F8504A1E40EA02201F4A1B
:1056E0008C3210607047014600201C4A8C321068D2
:1056F00020F4401008431060704701460020174A0C
:105700008C32106820F44000084310607047014656
:105710000020124A8C32106820F440300843106098
:10572000704719490860704739B10C4A3032126825
:1057300002430A4B30331A6006E0084A30321268DE
:105740008243064B30331A607047F9B1034A343252
:1057500012680243014B34331A601CE000380240E7
:10576000FFFFF6EA1030002400300020000047421E
:10577000800E47420024F40000127A00809300203B
:10578000FFFCFF0F5C014742E01147428F4A12685D
:1057900082438E4B1A60704739B18C4A121D1268D1
:1057A00002438A4B1B1D1A6006E0884A121D1268CC
:1057B0008243864B1B1D1A60704739B1834A0C32F5
:1057C00012680243814B0C331A6006E07F4A0C32A8
:1057D000126882437D4B0C331A60704739B17B4AA3
:1057E000103212680243794B10331A6006E0774A90
:1057F000103212688243754B10331A60704739B10A
:10580000724A243A12680243704B243B1A6006E045
:105810006E4A243A126882436C4B243B1A607047EC
:1058200039B16A4A203A12680243684B203B1A6039
:1058300006E0664A203A12688243644B203B1A60B5
:10584000704739B1614A1C3A126802435F4B1C3BF6
:105850001A6006E05D4A1C3A126882435B4B1C3BAF
:105860001A60704739B1594A143A12680243574BCB
:10587000143B1A6006E0554A143A12688243534BAF
:10588000143B1A60704739B1504A103A126802430B
:105890004E4B103B1A6006E04C4A103A12688243A5
:1058A0004A4B103B1A60704739B1484A1C321268A3
:1058B0000243464B1C331A6006E0444A1C3212680D
:1058C0008243424B1C331A60704739B13F4A203241
:1058D000126802433D4B20331A6006E03B4A2032F7
:1058E00012688243394B20331A60704739B1374A06
:1058F000243212680243354B24331A6006E0334ADF
:10590000243212688243314B24331A60704739B114
:105910002E4A2C32126802432C4B2C331A6006E0BC
:105920002A4A2C3212688243284B2C331A60704763
:1059300039B1264A303212680243244B30331A60A0
:1059400006E0224A303212688243204B30331A601C
:105950007047012808D11D493C31096841F0080110
:105960001A4A3C32116007E018493C31096821F0BD
:105970000801164A3C321160704739B1134A273A80
:1059800012780243114B273B1A7006E00F4A273A60
:10599000127882430D4B273B1A7070470B484030FA
:1059A000006840F080700949403108607047014646
:1059B0000020064A283A12680A4201D0012000E07D
:1059C000002070470149263908707047343802407A
:1059D00010B504469848844208D101210846FFF7D3
:1059E0000EFF00210120FFF70AFF76E09348844272
:1059F00008D101210220FFF702FF00210220FFF75A
:105A0000FEFE6AE08E48844208D101210420FFF79F
:105A1000F6FE00210420FFF7F2FE5EE08948844292
:105A200008D101210820FFF7EAFE00210820FFF736
:105A3000E6FE52E08448844208D101211020FFF79D
:105A4000DEFE00211020FFF7DAFE46E07F488442A8
:105A500008D101212020FFF7D2FE00212020FFF7EE
:105A6000CEFE3AE07A48844208D101214020FFF777
:105A7000C6FE00214020FFF7C2FE2EE0754884429A
:105A800008D101218020FFF7BAFE00218020FFF716
:105A9000B6FE22E07048844208D101218015FFF74C
:105AA000AEFE0021A015FFF7AAFE16E06B48844267
:105AB00008D101214015FFF7A2FE00216015FFF774
:105AC0009EFE0AE06648844207D101210015FFF7D7
:105AD00096FE00212015FFF792FE10BDF0B50A4694
