:020000040800F2
:1000000078990020D1790008594E00085B4E00080D
:100010005F4E0008634E0008674E000800000000B5
:100020000000000000000000000000006B4E00080F
:100030006D4E0008000000006F4E0008714E000871
:10004000EB790008EB790008EB790008EB79000800
:10005000EB790008EB790008EB790008EB790008F0
:10006000EB790008EB790008EB790008EB790008E0
:10007000EB790008EB790008EB790008EB790008D0
:10008000EB790008EB790008EB790008EB790008C0
:10009000EB790008EB790008EB790008EB790008B0
:1000A00005340008EB790008EB790008EB790008CB
:1000B000EB790008EB790008EB790008EB79000890
:1000C000EB790008EB790008EB790008EB79000880
:1000D000EB79000833040008EB790008EB7900089D
:1000E000EB790008EB790008EB790008EB79000860
:1000F000EB790008EB790008EB790008EB79000850
:10010000EB790008EB79000819340008EB79000856
:10011000EB790008EB790008EB790008E13300087F
:100120002D340008EB790008EB790008EB79000822
:10013000EB790008EB790008EB790008EB7900080F
:10014000EB790008EB790008EB790008EB790008FF
:10015000EB790008EB790008EB7900088734000898
:10016000EB790008EB790008EB790008EB790008DF
:10017000EB790008EB790008EB790008EB790008CF
:10018000EB790008EB790008DFF80CD007F034FFBA
:10019000004800479D0100087899002004F072FF94
:1001A00001F018FE01203E49086000F041FC00F01B
:1001B00095F901F07EFD4FF4A06005F033FC39485D
:1001C00007F0C1FA03F0ACF94FF4FA7004F08CFFB9
:1001D00003F0BAF963E034480078012804D103F051
:1001E000B3F900203049087009E004F00BF9002051
:1001F0002E4908702E49087001202B4908702B48A1
:1002000000780128F1D00CE004F086FA002027499C
:1002100008702749087001202349087000202549EB
:100220000870224800780228EED00CE004F005FCAB
:1002300000201E4908701E49087001201A490870E4
:1002400000201C490870194800780328EED00CE003
:1002500004F0B0FC00201549087015490870012011
:1002600011490870002013490870104800780428CC
:10027000EED00CE004F0C4FD00200C4908700C49DD
:10028000087001200849087000200A4908700748D2
:1002900000780528EED04FF4FA7004F025FF9AE7B5
:1002A000A002404200200140781D0020731D002064
:1002B000741D0020771D0020014600BF704700BF5D
:1002C0007F4A128802F04002002AF9D0C2B27C4B69
:1002D0009A80704700B587B00121084605F004F9FF
:1002E0000121102005F05AF907220921754805F06F
:1002F00060FB07220A21734805F05BFB4FF4C060E6
:10030000059002208DF818008DF8190000208DF856
:100310001A0001208DF81B0005A96A4805F0BEFAF5
:100320004FF4E13001900020ADF80800ADF80A006C
:10033000ADF80C00ADF810000C20ADF80E0001A9CE
:100340005F4806F06CFC01215D4806F0F0FC40219E
:100350005B4806F0D4FD012240F22551584806F0D2
:100360009CFD25208DF8000003208DF801008DF8FC
:10037000020001208DF80300684605F058FB07B025
:1003800000BD00B587B00121202005F007F901214B
:10039000042005F0A9F8C020059002208DF818006F
:1003A00003208DF8190000208DF81A0001208DF827
:1003B0001B0005A9444805F071FA082206214248AD
:1003C00005F0F7FA082207213F4805F0F2FA4FF44A
:1003D000E13001900020ADF80800ADF80A00ADF85A
:1003E0000C00ADF810000C20ADF80E0001A9374844
:1003F00006F015FC012240F22551344806F04DFD6F
:100400000121324806F093FC4021304806F077FD88
:1004100047208DF8000000208DF8010002208DF8A3
:10042000020001208DF80300684605F000FB07B0CC
:1004300000BD10B540F22551214806F069FD10B30A
:100440001F4806F0A3FCC4B22148008800F4004015
:10045000C8B91F48008800F4804060B10A2C03D05E
:1004600000201B49088020E01948008840F4004023
:100470001749088019E00D2C06D11548008840F472
:1004800080401349088010E011480088C0F30D0037
:1004900010490C540E480088401C0D49088008463D
:1004A0000088C72801DD002008800B48006808B9D3
:1004B000012000E0002008498031086010BD0000E4
:1004C00000100140000002400008024000140140FA
:1004D00004000020949300202482424200B58BB097
:1004E0000121022005F000F80121042005F045F863
:1004F0004FF47070099000208DF82A0002208DF8CA
:10050000280003208DF8290001208DF82B0009A96F
:10051000344805F0C3F902220621324805F049FAB1
:10052000022207212F4805F044FA022208212D4813
:1005300005F03FFA022209212A4805F03AFA002084
:10054000ADF82000ADF81A0040F2E73007905320D4
:10055000ADF8180006A9244805F081FB6020ADF82D
:1005600004000020ADF810000120ADF8060001A93C
:100570001D4805F009FC01A91B4805F03EFC01A936
:10058000194805F087FC01A9174805F0E9FC082186
:10059000154805F086FD0821134805F08BFD08215C
:1005A000114805F094FD08210F4805F099FD01213F
:1005B0000D4805F0BFFB01210B4805F0D9FB642174
:1005C000094805F03AFD6421074805F038FD64212B
:1005D000054805F036FD6421034805F034FD0BB0F5
:1005E00000BD0000000402400008004000BFFE49BA
:1005F0000880704700BFFC49891C0880704708B517
:10060000F948801C00880090BDF8000008BD03B5C3
:10061000BDF80000F4490880BDF804004FF0D8414F
:10062000A1F880000CBD01B5BDF80000FFF7DEFFAA
:10063000052004F03CFDFFF7E2FF08BDEB48008910
:10064000E94908807047E849891C0880704730B53F
:10065000014601F01F04C1F34513CA0AE50205EB88
:1006600043151544A8B230BD00BF011EA0F1010220
:10067000D0B2FAD1704700B502460B46DB49488933
:10068000FFF7B4FF1012FFF7B5FFD8494989491C9D
:1006900088B2FFF7ABFFD0B2FFF7ACFFD349888930
:1006A000FFF7A4FF1812FFF7A5FFD0498989491C5D
:1006B00088B2FFF79BFFD8B2FFF79CFF00BD3EB5A5
:1006C00004460D460020029001900090C748008823
:1006D000A04203DDC5484088A84201DC00203EBDA1
:1006E00029462046FFF7C7FF4FF43850FFF77EFF3B
:1006F000FFF785FF0220FFF7B7FFFFF780FF0290AB
:100700000220FFF7B1FFFFF77AFF0090BDF8080065
:10071000C0B20190BDF804004FF6FF7101EA00205D
:100720000190BDF80800C012C002BDF80410891283
:1007300040EA4110BDF8001040EAE120CFE700B5E3
:100740004FF42450FFF752FF00BD00B54FF4205086
:10075000FFF74CFF00BDF0B5064600240027082E29
:100760001CD2DFE806F00406090C0F12151800BFB2
:1007700014E044F0800411E044F040040EE044F042
:10078000C0040BE044F0200408E044F0600405E0FD
:1007900044F0A00402E044F0E00400BF00BF4FF4C6
:1007A000585721463846FFF732FF04F0200068B161
:1007B0008E4800888D494988884214DA8B4805881C
:1007C00040888A490880084645800CE087480088B0
:1007D00086494988884206DD8448058840888349DF
:1007E00008800846458081494889FFF7FFFE0020C0
:1007F000FFF700FF7D494989491C88B2FFF7F6FEE3
:100800000020FFF7F7FE79494989891C88B2FFF774
:10081000EDFE76490988491EC1F30F20FFF7EAFE75
:1008200072494989C91C88B2FFF7E0FE6F4909780F
:10083000491EC8B2FFF7DEFE6C498889FFF7D6FE75
:100840000020FFF7D7FE69498989491C88B2FFF764
:10085000CDFE0020FFF7CEFE64498989891C88B24D
:10086000FFF7C4FE61494988491EC1F30F20FFF715
:10087000C1FE5E498989C91C88B2FFF7B7FE5B4992
:100880008978491EC8B2FFF7B5FEF0BD30B5044601
:100890000D4629462046FFF7EEFEFFF7CFFE5448EF
:1008A00000885149891C088030BD10B503460C46AC
:1008B0004E494889FFF79AFE1812FFF79BFE4B49F5
:1008C0004989491C88B2FFF791FED8B2FFF792FE22
:1008D00046498889FFF78AFE2012FFF78BFE4349BD
:1008E0008989491C88B2FFF781FEE0B2FFF782FEDA
:1008F0003E4800893C4908804FF0D840A0F880204D
:1009000010BD10B5044694B90020384988714FF4E1
:10091000305008814FF4285048814FF42C50888182
:100920004FF4F07008804FF44870488011E00120C7
:100930002E4988714FF4305008814FF42850488177
:100940004FF42C5088814FF4487008804FF4F070B9
:1009500048800020FFF7FFFE10BD30B504460D466D
:10096000A018401E82B2E818401E83B21F49488971
:10097000FFF73CFE2012FFF73DFE1C494989491C48
:1009800088B2FFF733FEE0B2FFF734FE174949891A
:10099000891C88B2FFF72AFE1012FFF72BFE1349BD
:1009A0004989C91C88B2FFF721FED0B2FFF722FEA9
:1009B0000E498889FFF71AFE2812FFF71BFE0B4924
:1009C0008989491C88B2FFF711FEE8B2FFF712FED1
:1009D00006498989891C88B2FFF708FE1812FFF7BB
:1009E00009FE0249898905E07E00006C5C940020C4
:1009F0000C000020C91C88B2FFF7F8FDD8B2FFF741
:100A0000F9FD30BD30B50025FE48048840884443D8
:100A100000210846FFF72FFEFFF710FE00BF04E09D
:100A2000F9480088F94908806D1CA542F8D330BD0B
:100A300000B5A1B00020209001217A2004F054FDDF
:100A40000121084604F088FD4FF400601E9001204B
:100A50008DF87C0000208DF87E0002208DF87D004E
:100A600001208DF87F001EA9E94804F017FF4CF221
:100A700033701E9002208DF87C0000208DF87E00DF
:100A800003208DF87D0001208DF87F001EA9E1482C
:100A900004F004FF4FF680701E9002208DF87C0059
:100AA00000208DF87E0003208DF87D0001208DF858
:100AB0007F001EA9D84804F0F1FE4FF480501E902C
:100AC00002208DF87C0000208DF87E0003208DF838
:100AD0007D0001208DF87F001EA9D04804F0DEFEC5
:100AE0004FF480501E9002208DF87C0000208DF87D
:100AF0007E0003208DF87D0001208DF87F001EA967
:100B0000C74804F0CBFE0C220021C24804F051FF7C
:100B10000C220121BF4804F04CFF0C220421BD48E7
:100B200004F047FF0C220521BA4804F042FF0C22D2
:100B30000821B84804F03DFF0C220921B54804F013
:100B400038FF0C220A21B34804F033FF0C220E2197
:100B5000B04804F02EFF0C220F21AE4804F029FF0C
:100B60000C220721AC4804F024FF0C220821AA48DB
:100B700004F01FFF0C220921A74804F01AFF0C22E1
:100B80000A21A54804F015FF0C220B21A24804F00D
:100B900010FF0C221146A04804F00BFF0C220D217F
:100BA0009D4804F006FF0C220E219B4804F001FF33
:100BB0000C220F21984804F0FCFE0C2211469748A5
:100BC00004F0F7FE0C221146954804F0F2FE0F20C7
:100BD0000890002009903C200A9000200B900C9077
:100BE0000D900E90092001900020029008200390A3
:100BF0000020049005900690079006200F9000209A
:100C000010901190102012900020139015901490C5
:100C1000169017904FF480501890002019904FF4C0
:100C200080401A9000201B9008A81C9001A81D90DD
:100C30000FA806F0D2F90121062006F059FA322059
:100C400004F052FA01210020FFF7E1FC322004F009
:100C50004BFA0020FFF7E7FC6A4988800846808845
:100C6000FF2805DB084680884FF6FF7188422AD1AD
:100C70004FF45A40FFF7BAFCFFF7C1FC6149888086
:100C80004FF45B40FFF7B2FCFFF7B9FC5D49888089
:100C9000084680884FF6FF7101EA00205949888094
:100CA0004FF45C40FFF7A2FCFFF7A9FC5549898887
:100CB00008435449888008468088B0F5004F02D127
:100CC00045F2105088804F48808845F21051884284
:100CD0001CD15448006820F00F004FF02041C1F8AB
:100CE0001C010846D0F81C0120F47060C1F81C01FA
:100CF0000846D0F81C0140F00300C1F81C0108466A
:100D0000D0F81C0140F40070C1F81C013D488088F7
:100D100045F21051884273D155214FF47040FFF7CE
:100D200076FCAA214FF20100FFF771FC52214FF22D
:100D30000200FFF76CFC08214FF20300FFF767FC8D
:100D400001214FF20400FFF762FC0D214FF4304007
:100D5000FFF75DFC0D214BF20100FFF758FC0D2160
:100D60004BF20200FFF753FC34214FF43640FFF7FB
:100D70004EFC34214BF20160FFF749FC34214BF269
:100D80000260FFF744FC0D214FF43140FFF73FFCB8
:100D90000D214BF20110FFF73AFC0D214BF202102E
:100DA000FFF735FC34214FF43740FFF730FC342196
:100DB0004BF20170FFF72BFC34214BF20270FFF76E
:100DC00026FC00214FF43240FFF721FC00214BF2BA
:100DD0000120FFF71CFC00214BF20220FFF717FC5B
:100DE00024214FF43840FFF712FC24214BF6010078
:100DF000FFF70DFC24214BF60200FFF708FC13E07F
:100E0000FEE300005C9400200E0000208000006CD7
:100E100000040240000C0240001002400014024096
:100E2000001802401C0100A001214FF43F40FFF7D1
:100E3000EEFB0F214FF43340FFF7E9FB0F214BF29C
:100E40000130FFF7E4FB0F214BF20230FFF7DFFB2D
:100E500034214FF43940FFF7DAFB34214BF601100F
:100E6000FFF7D5FB34214BF60210FFF7D0FB08212A
:100E70004FF43540FFF7CBFB08214BF20150FFF751
:100E8000C6FB08214BF20250FFF7C1FB03214FF4D0
:100E90004240FFF7BCFB24214FF43A40FFF7B7FB79
:100EA00024214BF60120FFF7B2FB24214BF6022050
:100EB000FFF7ADFB00214FF43C40FFF7A8FB782182
:100EC0004BF60140FFF7A3FB00214BF60240FFF772
:100ED0009EFB00214FF43D40FFF799FB78214BF634
:100EE0000150FFF794FB00214BF60250FFF78FFBF8
:100EF00000214FF43E40FFF78AFB64214BF601606E
:100F0000FFF785FB00214FF45140FFF780FB3321B1
:100F10004DF20110FFF77BFB00214DF20210FFF7AD
:100F200076FB34214DF20310FFF771FB00214DF2E7
:100F30000410FFF76CFB3A214DF20510FFF767FB39
:100F400000214DF20610FFF762FB4A214DF2071017
:100F5000FFF75DFB00214DF20810FFF758FB5C2105
:100F60004DF20910FFF753FB00214DF20A10FFF775
:100F70004EFB81214DF20B10FFF749FB00214DF292
:100F80000C10FFF744FBA6214DF20D10FFF73FFBBD
:100F900000214DF20E10FFF73AFBE5214DF20F1044
:100FA000FFF735FB01214DF21010FFF730FB132145
:100FB0004DF21110FFF72BFB01214DF21210FFF73C
:100FC00026FB54214DF21310FFF721FB01214DF2B6
:100FD0001410FFF71CFB82214DF21510FFF717FBD1
:100FE00001214DF21610FFF712FBCA214DF2171026
:100FF000FFF70DFB02214DF21810FFF708FB00214F
:101000004DF21910FFF703FB02214DF21A10FFF702
:10101000FEFA01214DF21B10FFF7F9FA02214DF201
:101020001C10FFF7F4FA34214DF21D10FFF7EFFA10
:1010300002214DF21E10FFF7EAFA67214DF21F1050
:10104000FFF7E5FA02214DF22010FFF7E0FA8421C4
:101050004DF22110FFF7DBFA02214DF22210FFF7CB
:10106000D6FAA4214DF22310FFF7D1FA02214DF256
:101070002410FFF7CCFAB7214DF22510FFF7C7FA7D
:1010800002214DF22610FFF7C2FACF214DF22710B0
:10109000FFF7BDFA02214DF22810FFF7B8FADE2162
:1010A0004DF22910FFF7B3FA02214DF22A10FFF793
:1010B000AEFAF2214DF22B10FFF7A9FA02214DF200
:1010C0002C10FFF7A4FAFE214DF22D10FFF79FFA26
:1010D00003214DF22E10FFF79AFA10214DF22F1036
:1010E000FFF795FA03214DF23010FFF790FA332104
:1010F0004DF23110FFF78BFA03214DF23210FFF75A
:1011000086FA6D214DF23310FFF781FA00214FF47A
:101110005240FFF77CFA33214DF20120FFF777FAB6
:1011200000214DF20220FFF772FA34214DF2032024
:10113000FFF76DFA00214DF20420FFF768FA3A211B
:101140004DF20520FFF763FA00214DF20620FFF76C
:101150005EFA4A214DF20720FFF759FA00214DF2BD
:101160000820FFF754FA5C214DF20920FFF74FFAEF
:1011700000214DF20A20FFF74AFA81214DF20B209F
:10118000FFF745FA00214DF20C20FFF740FAA621A7
:101190004DF20D20FFF73BFA00214DF20E20FFF734
:1011A00036FAE5214DF20F20FFF731FA01214DF219
:1011B0001020FFF72CFA13214DF21120FFF727FA28
:1011C00001214DF21220FFF722FA54214DF2132093
:1011D000FFF71DFA01214DF21420FFF718FA8221C2
:1011E0004DF21520FFF713FA01214DF21620FFF7FB
:1011F0000EFACA214DF21720FFF709FA02214DF22B
:101200001820FFF704FA00214DF21920FFF7FFF92B
:1012100002214DF21A20FFF7FAF901214DF21B20AD
:10122000FFF7F5F902214DF21C20FFF7F0F9342108
:101230004DF21D20FFF7EBF902214DF21E20FFF7C2
:10124000E6F967214DF21F20FFF7E1F902214DF287
:101250002020FFF7DCF984214DF22120FFF7D7F998
:1012600002214DF22220FFF7D2F9A4214DF22320D2
:10127000FFF7CDF902214DF22420FFF7C8F9B7217D
:101280004DF22520FFF7C3F902214DF22620FFF78A
:10129000BEF9CF214DF22720FFF7B9F902214DF217
:1012A0002820FFF7B4F9DE214DF22920FFF7AFF92E
:1012B00002214DF22A20FFF7AAF9F2214DF22B204C
:1012C000FFF7A5F902214DF22C20FFF7A0F9FE212E
:1012D0004DF22D20FFF79BF903214DF22E20FFF751
:1012E00096F910214DF22F20FFF791F903214DF2CD
:1012F0003020FFF78CF933214DF23120FFF787F9C9
:1013000003214DF23220FFF782F96D214DF2332097
:10131000FFF77DF900214FF45340FFF778F93321AF
:101320004DF20130FFF773F900214DF20230FFF763
:101330006EF934214DF20330FFF769F900214DF2C7
:101340000430FFF764F93A214DF20530FFF75FF9F9
:1013500000214DF20630FFF75AF94A214DF20730CD
:10136000FFF755F900214DF20830FFF750F95C21E5
:101370004DF20930FFF74BF900214DF20A30FFF72B
:1013800046F981214DF20B30FFF741F900214DF272
:101390000C30FFF73CF9A6214DF20D30FFF737F97D
:1013A00000214DF20E30FFF732F9E5214DF20F30FA
:1013B000FFF72DF901214DF21030FFF728F9132125
:1013C0004DF21130FFF723F901214DF21230FFF7F2
:1013D0001EF954214DF21330FFF719F901214DF296
:1013E0001430FFF714F982214DF21530FFF70FF991
:1013F00001214DF21630FFF70AF9CA214DF21730DC
:10140000FFF705F902214DF21830FFF700F900212E
:101410004DF21930FFF7FBF802214DF21A30FFF7B9
:10142000F6F801214DF21B30FFF7F1F802214DF2E1
:101430001C30FFF7ECF834214DF21D30FFF7E7F8D0
:1014400002214DF21E30FFF7E2F867214DF21F3006
:10145000FFF7DDF802214DF22030FFF7D8F88421A4
:101460004DF22130FFF7D3F802214DF22230FFF781
:10147000CEF8A4214DF22330FFF7C9F802214DF236
:101480002430FFF7C4F8B7214DF22530FFF7BFF83D
:1014900002214DF22630FFF7BAF8CF214DF2273066
:1014A000FFF7B5F802214DF22830FFF7B0F8DE2142
:1014B0004DF22930FFF7ABF802214DF22A30FFF749
:1014C000A6F8F2214DF22B30FFF7A1F802214DF2E0
:1014D0002C30FFF79CF8FE214DF22D30FFF797F8E6
:1014E00003214DF22E30FFF792F810214DF22F30EC
:1014F000FFF78DF803214DF23030FFF788F83321E4
:101500004DF23130FFF783F803214DF23230FFF70F
:101510007EF86D214DF23330FFF779F800214FF45A
:101520005440FFF774F833214DF20140FFF76FF894
:1015300000214DF20240FFF76AF834214DF20340DA
:10154000FFF765F800214DF20440FFF760F83A21FB
:101550004DF20540FFF75BF800214DF20640FFF722
:1015600056F84A214DF20740FFF751F800214DF29D
:101570000840FFF74CF85C214DF20940FFF747F8AF
:1015800000214DF20A40FFF742F881214DF20B4055
:10159000FFF73DF800214DF20C40FFF738F8A62187
:1015A0004DF20D40FFF733F800214DF20E40FFF7EA
:1015B0002EF8E5214DF20F40FFF729F801214DF2F9
:1015C0001040FFF724F813214DF21140FFF71FF8E8
:1015D00001214DF21240FFF71AF854214DF2134049
:1015E000FFF715F801214DF21440FFF710F88221A2
:1015F0004DF21540FFF70BF801214DF2164000E0C7
:101600001DE3FFF704F8CA214DF21740FEF7FFFF74
:1016100002214DF21840FEF7FAFF00214DF2194069
:10162000FEF7F5FF02214DF21A40FEF7F0FF01210F
:101630004DF21B40FEF7EBFF02214DF21C40FEF77E
:10164000E6FF34214DF21D40FEF7E1FF02214DF28D
:101650001E40FEF7DCFF67214DF21F40FEF7D7FF6B
:1016600002214DF22040FEF7D2FF84214DF22140AD
:10167000FEF7CDFF02214DF22240FEF7C8FFA42164
:101680004DF22340FEF7C3FF02214DF22440FEF746
:10169000BEFFB7214DF22540FEF7B9FF02214DF202
:1016A0002640FEF7B4FFCF214DF22740FEF7AFFFF3
:1016B00002214DF22840FEF7AAFFDE214DF229401B
:1016C000FEF7A5FF02214DF22A40FEF7A0FFF2210E
:1016D0004DF22B40FEF79BFF02214DF22C40FEF70E
:1016E00096FFFE214DF22D40FEF791FF03214DF2B2
:1016F0002E40FEF78CFF10214DF22F40FEF787FFA2
:1017000003214DF23040FEF782FF33214DF231408C
:10171000FEF77DFF03214DF23240FEF778FF6D2189
:101720004DF23340FEF773FF00214FF45540FEF7B2
:101730006EFF33214DF20150FEF769FF00214DF29B
:101740000250FEF764FF34214DF20350FEF75FFFB5
:1017500000214DF20450FEF75AFF3A214DF2055098
:10176000FEF755FF00214DF20650FEF750FF4A21CB
:101770004DF20750FEF74BFF00214DF20850FEF7E7
:1017800046FF5C214DF20950FEF741FF00214DF26A
:101790000A50FEF73CFF81214DF20B50FEF737FF58
:1017A00000214DF20C50FEF732FFA6214DF20D50F4
:1017B000FEF72DFF00214DF20E50FEF728FFE52128
:1017C0004DF20F50FEF723FF01214DF21050FEF7AE
:1017D0001EFF13214DF21150FEF719FF01214DF2AA
:1017E0001250FEF714FF54214DF21350FEF70FFF75
:1017F00001214DF21450FEF70AFF82214DF21550DF
:10180000FEF705FF01214DF21650FEF700FFCA2139
:101810004DF21750FEF7FBFE02214DF21850FEF775
:10182000F6FE00214DF21950FEF7F1FE02214DF2B5
:101830001A50FEF7ECFE01214DF21B50FEF7E7FEB9
:1018400002214DF21C50FEF7E2FE34214DF21D50F4
:10185000FEF7DDFE02214DF21E50FEF7D8FE672195
:101860004DF21F50FEF7D3FE02214DF22050FEF73D
:10187000CEFE84214DF22150FEF7C9FE02214DF229
:101880002250FEF7C4FEA4214DF22350FEF7BFFE06
:1018900002214DF22450FEF7BAFEB7214DF2255039
:1018A000FEF7B5FE02214DF22650FEF7B0FECF2125
:1018B0004DF22750FEF7ABFE02214DF22850FEF705
:1018C000A6FEDE214DF22950FEF7A1FE02214DF2C7
:1018D0002A50FEF79CFEF2214DF22B50FEF797FEA8
:1018E00002214DF22C50FEF792FEFE214DF22D50BA
:1018F000FEF78DFE03214DF22E50FEF788FE1021DB
:101900004DF22F50FEF783FE03214DF23050FEF7CB
:101910007EFE33214DF23150FEF779FE03214DF268
:101920003250FEF774FE6D214DF23350FEF76FFE1C
:1019300000214FF45640FEF76AFE33214DF201605C
:10194000FEF765FE00214DF20260FEF760FE3421D5
:101950004DF20360FEF75BFE00214DF20460FEF7DE
:1019600056FE3A214DF20560FEF751FE00214DF280
:101970000660FEF74CFE4A214DF20760FEF747FE77
:1019800000214DF20860FEF742FE5C214DF2096035
:10199000FEF73DFE00214DF20A60FEF738FE812180
:1019A0004DF20B60FEF733FE00214DF20C60FEF7A6
:1019B0002EFEA6214DF20D60FEF729FE00214DF20C
:1019C0000E60FEF724FEE5214DF20F60FEF71FFECC
:1019D00001214DF21060FEF71AFE13214DF2116045
:1019E000FEF715FE01214DF21260FEF710FE5421A4
:1019F0004DF21360FEF70BFE01214DF21460FEF76D
:101A000006FE82214DF21560FEF701FE01214DF226
:101A10001660FEF7FCFDCA214DF21760FEF7F7FDD8
:101A200002214DF21860FEF7F2FD00214DF219601F
:101A3000FEF7EDFD02214DF21A60FEF7E8FD0121EF
:101A40004DF21B60FEF7E3FD02214DF21C60FEF734
:101A5000DEFD34214DF21D60FEF7D9FD02214DF26D
:101A60001E60FEF7D4FD67214DF21F60FEF7CFFD2B
:101A700002214DF22060FEF7CAFD84214DF2216063
:101A8000FEF7C5FD02214DF22260FEF7C0FDA42144
:101A90004DF22360FEF7BBFD02214DF22460FEF7FC
:101AA000B6FDB7214DF22560FEF7B1FD02214DF2E2
:101AB0002660FEF7ACFDCF214DF22760FEF7A7FDB3
:101AC00002214DF22860FEF7A2FDDE214DF22960D1
:101AD000FEF79DFD02214DF22A60FEF798FDF221EE
:101AE0004DF22B60FEF793FD02214DF22C60FEF7C4
:101AF0008EFDFE214DF22D60FEF789FD03214DF292
:101B00002E60FEF784FD10214DF22F60FEF77FFD61
:101B100003214DF23060FEF77AFD33214DF2316042
:101B2000FEF775FD03214DF23260FEF770FD6D2169
:101B30004DF23360FEF76BFD55214FF47040FEF718
:101B400066FDAA214FF20100FEF761FD52214FF21E
:101B50000200FEF75CFD08214FF20300FEF757FD7F
:101B600000214FF20400FEF752FDCC214FF431402A
:101B7000FEF74DFD00214BF20110FEF748FD052157
:101B80004FF43640FEF743FD70214FF43740FEF727
:101B90003EFD70214BF20170FEF739FD01214FF43B
:101BA0003840FEF734FD03214BF60100FEF72FFD10
:101BB00003214BF60200FEF72AFD03214BF603003A
:101BC000FEF725FD02214FF43C40FEF720FD0021E9
:101BD0004BF60140FEF71BFD00214BF60240FEF7DD
:101BE00016FDD0214FF44940FEF711FD02214CF6BD
:101BF0000110FEF70CFD50214CF60210FEF707FD18
:101C000050214CF60310FEF702FD50214CF6041053
:101C1000FEF7FDFC00214FF45450FEF7F8FC55216F
:101C20004FF46850FEF7F3FC4FF48850FEF7DEFCEB
:101C3000782003F03CFA4FF42450FEF7D7FC002044
:101C4000FEF75FFEFEF7DEFE01200249086021B0CC
:101C500000BD0000AC8240421FB50121082003F006
:101C60008CFC40F2E73002902920ADF804000020FF
:101C7000ADF80600ADF80C0001A9524803F0EFFFE3
:101C8000012211464F4804F08BFC32208DF80000F1
:101C900000208DF8010004208DF8020001208DF84D
:101CA0000300684603F0C3FE0121464804F060F8D3
:101CB0001FBD1FB50121202003F05FFC41F28730DA
:101CC00002905320ADF804000020ADF80600ADF8F6
:101CD0000C0001A93C4803F0C2FF012211463A481A
:101CE00004F05EFC37208DF8000001208DF8010023
:101CF00002208DF8020001208DF80300684603F0F1
:101D000096FE0121304804F033F81FBD1FB50121B4
:101D1000080403F043FC40F69F70029040F2473005
:101D2000ADF804000020ADF80600ADF80C0001A9E4
:101D3000264803F094FF01221146244804F030FCA9
:101D400018208DF8000002208DF801008DF80200A7
:101D500001208DF80300684603F069FE01211B484D
:101D600004F006F81FBD1FB50121880403F016FC1E
:101D700040F69F70029040F24730ADF8040000201A
:101D8000ADF80600ADF80C0001A9114803F067FF9B
:101D9000012211460E4804F003FC1A208DF80000C1
:101DA00002208DF8010003208DF8020001208DF83B
:101DB0000300684603F03BFE0121054803F0D8FF0D
:101DC0001FBD0000000C0040001400400040014016
:101DD000004801401CB50121212003F085FB4FF490
:101DE0008070009003208DF8050000208DF806001B
:101DF00002208DF8070001208DF80400694685480F
:101E000003F04CFD0020844908600120009003206D
:101E10008DF8050002208DF8070000208DF80400E1
:101E200069467C4803F03AFD4020009003208DF87D
:101E3000050000208DF8060002208DF80700012023
:101E40008DF804006946754803F028FD01207449A7
:101E5000C1F898021CBD014601F10F0291B2212286
:101E600091FBF2F2D0B26F4A1278824209D16E4AE7
:101E70001278824205D06D4A1278521C6B4B1A7050
:101E800004E00022674B1A70684B1A70674A127898
:101E9000032A04D1644A10700022644B1A70614A0C
:101EA0001070704710B5604800780A2875D2DFE8D6
:101EB00000F00517293B4D5F75818DA25C480078C5
:101EC000012806D15B48007818B9012059490870EB
:101ED00002E000205649087000205749087097E03A
:101EE00053480078012806D15448007818B90120D9
:101EF0005249087002E001204D49087001204E4906
:101F0000087085E04A48007828B94B48007810B935
:101F100001F036FF04E04A480078401E4849087046
:101F200001204549087073E04148007828B94248CB
:101F3000007810B901F00AFF04E042480078401E22
:101F40004049087001203C49087061E03848007839
:101F500028B93948007810B901F09BFE04E03848F0
:101F60000078401E364908700120334908704FE060
:101F70002F48007840B93048007828B901F02CFE8D
:101F800005202B49087004E02E480078401C2D499C
:101F900008700120284908703AE038E026480078A7
:101FA00020B901F064FC0420214908700120224975
:101FB00008702DE02048007820B901F00AFC0320C9
:101FC0001B49087001201C49087021E0184800785E
:101FD00040B91948007828B901F0A5FB022014493E
:101FE000087004E016480078401C1549087001206C
:101FF000114908700CE01048007820B901F046FB48
:1020000001200B49087001200B49087000E000BF57
:1020100000BF10BD00000240A00240420014024078
:1020200000804242711D0020701D0020721D0020A2
:10203000731D0020781D0020741D0020771D0020D6
:10204000751D0020761D00202DE9F05F05460E4627
:1020500017469846DDF828A04FF0000B781B401C6F
:102060001FFA80FB344614E021462846FEF703FBA6
:10207000FEF7E4FA4FF0000907E04FF0D840A0F86F
:1020800080A009F101001FFA80F9D945F5DB601C39
:1020900084B24445E8DDBDE8F09F2DE9F84F0746DE
:1020A0000D4690469946DDF828B0A8EB0700401C85
:1020B0001FFA80FAA9EB0500401C80B200900024B2
:1020C00014E0281981B23846FEF7D5FAFEF7B6FAC1
:1020D000002607E004FB0A603BF81000F84908807E
:1020E000701C86B25645F5DB601C84B200988442B1
:1020F000E7DBBDE8F88F2DE9FF4F85B081468A46C2
:102100000020049003900798A0EB09050898A0EB25
:102110000A06CDF80890CDF804A0002D01DD0127B6
:1021200005E00DB9002702E04FF0FF376D42002EA9
:1021300002DD4FF0010806E016B94FF0000802E09A
:102140004FF0FF387642B54201DD2C4600E03446C0
:102150004FF0000B21E0019A91B2029A90B2FEF783
:1021600095FB049828440490039830440390049805
:10217000A04205DD0498001B0490029838440290A8
:102180000398A04205DD0398001B0390019840448A
:1021900001900BF101001FFA80FB601C8345DADD22
:1021A00009B0BDE8F08F2DE9F04104460D46164612
:1021B0001F462B46324629462046FFF79CFF3B46EA
:1021C000224629462046FFF796FF3B4632463946CF
:1021D0002046FFF790FF3B46324629463046FFF740
:1021E0008AFFBDE8F0812DE9F04706460F4690468C
:1021F000002445460320A0EB48093CE07A1B91B23D
:10220000321990B2FEF742FB3A1B91B2721990B2AA
:10221000FEF73CFB3A1991B2721990B2FEF736FB09
:102220007A1991B2321990B2FEF730FB7A1991B255
:10223000321B90B2FEF72AFB3A1991B2721B90B290
:10224000FEF724FB7A1B91B2321B90B2FEF71EFB05
:102250003A1B91B2721B90B2FEF718FB641CB9F1E5
:10226000000F03DAA000801D814404E0601B8000A1
:102270000A3081446D1EAC42C0DDBDE8F0872DE917
:10228000F84F80460E4617461C46B3462046E317D5
:1022900004EB5373DB1021464FEAE47C04EB5C7CD7
:1022A0004FEAEC0CA4EBCC0CBCF1000F02D04FF0C9
:1022B000010C01E04FF0000C6344224604EBD27C99
:1022C0004FEA6C0C03FB0CF3DBB20093A7F1200088
:1022D000C7B2002556E00C2C07D107EB470079491F
:1022E00001EB800010F8059013E0102C05D1764822
:1022F00000EB071010F805900BE0182C07D107EB46
:10230000C700724901EB800010F8059001E0BDE8BC
:10231000F88F4FF0000A2FE009F0800030B16C48D0
:10232000028831464046FEF7C0FA07E00A9828B90D
:102330006848028831464046FEF7B7FA4FEA4960DE
:102340004FEA1069701C86B263484088B04200DCD6
:10235000DDE7A6EB0B00A0420AD15E4608F10100C2
:102360001FFA80F85C480088404500DCCFE706E0B3
:102370000AF1010000F0FF0ABAF1080FCCDB00BF40
:10238000681CC5B200988542A5DB00BFBFE710B549
:102390000246012000E050430B1EA1F10104E1B20E
:1023A000F9D110BD2DE9FF4F81B0074691461E4679
:1023B0000E9D4FF0000A002439E0301B401EC1B2D0
:1023C0000A20FFF7E4FFB9FBF0F00A21B0FBF1F2BD
:1023D00001FB1208BAF1000F16D1701EA04213DDE6
:1023E000B8F1000F0ED10020AB4605EBDB714910B0
:1023F00001FB0471009088B22B4620220299FFF75E
:102400003EFF12E04FF0010A0020AB4605EBDB7106
:10241000491001FB0471009088B208F13001CAB282
:102420002B460299FFF72BFF00BF601CC4B2B442D9
:10243000C3DB05B0BDE8F08F2DE9FF4F83B0064642
:1024400092461F46DDE910480020029000255CE01E
:10245000781B401EC1B20A20FFF799FFBAFBF0F0CB
:102460000A21B0FBF1F201FB12090298B0BB781E01
:10247000A84236DDB9F1000F31D108F0800078B103
:1024800008F00100A34604EBDB71491001FB056174
:10249000009088B2234630220499FFF7F0FE0EE048
:1024A00008F00100A34604EBDB71491001FB056154
:1024B000009088B2234620220499FFF7E0FE22E034
:1024C0008000006C791D0020ED210020DD27002018
:1024D0000C0000200E0000205C94002001E0012090
:1024E000029008F00100A34604EBDB71491001FBE8
:1024F0000561009088B209F13001CAB223460499FF
:10250000FFF7BDFE00BF681CC5B2BD42A0DB07B02F
:10251000BDE8F08F2DE9FC5F07460D46144698464E
:102520000026AA460197B34632E018F806905546B1
:1025300006FB04F000EBD0714A1001991144C84A1F
:10254000128802FB1B118FB204EBD471C44A1288AB
:10255000A2EB6101B9420ADA0027281985B20AEB19
:1025600004001FFA80FA0BF101001FFA80FBBC483F
:102570004088A84201DCBDE8FC9F0C9809F0FF02EE
:102580002346294600903846FFF779FE701C86B234
:1025900018F806000028C8D100BFECE72DE9F74F76
:1025A00088B00C4692460026002700200690039033
:1025B00001E0701C86B21AF806000028F9D1A8487C
:1025C000008890FBF4F04FF6FF7101EA400B96FB98
:1025D000FBF096FBFBF10BFB116109B1012100E05F
:1025E0000021084487B296FBF7F007FB106030B17A
:1025F00096FBF7F007FB1060381A85B200E0002563
:1026000096FBF7F00DB1012100E0002108441FFA0C
:1026100080F909FB04F101EBD172914B1B88A3EB0C
:10262000620000EBD072C2F34F0207924FF0000835
:102630004BE008F1010292FBF7F2284605EBD0735C
:102640005B10A5EB4303EB1A03FB04F1CB1701EB83
:1026500093734FEAA30C079B0CFB023292B20492D5
:1026600008F1010090FBF7F005FB109080B202909A
:102670000020069019E00399069808441AF8000013
:102680000590002000902346DDE904020899FFF739
:10269000F6FD204604EBD0714A100499114489B22A
:1026A00004910698401C80B20690029906988842D0
:1026B000E1DB0898204480B208900398484480B237
:1026C000039008F101001FFA80F8B845B1DB0BB0A8
:1026D000BDE8F08F2DE9F05F06460C461746984698
:1026E000A346002532E008EBC80007EBC00010F855
:1026F00005904FF0000A23E009F0800030B15948FE
:10270000028821463046FEF7D0F807E00A9828B93B
:102710005548028821463046FEF7C7F84FEA49601F
:102720004FEA1069601C84B2A4EB0B00182803D197
:102730005C46701C86B206E00AF1010000F0FF0A58
:10274000BAF1080FD8DB00BF681CC5B2482DCADB40
:10275000BDE8F09F2DE9F74F86B0834688460026F6
:102760000025A9460020039046463D4800881821D0
:1027700090FBF1F080B20190019896FBF0F196FB8E
:10278000F0F200FB126008B1012000E000200844D4
:1027900085B296FBF5F005FB106030B196FBF5F0C5
:1027A00005FB1060281A84B200E0002496FBF5F0C7
:1027B0000CB1012100E0002108441FFA80FA2849E9
:1027C00009880AEB4A02A1EBC20000EBD071C1F309
:1027D0004F01059100273DE07A1C92FBF5F320465E
:1027E00004EBD0725210A4EB4202A21A02EB420296
:1027F000D10001EBD1724FEA620C059A0CFB032267
:1028000092B20492781C90FBF5F004FB10A080B209
:1028100002904FF0000910E0002009F0FF03009043
:102820005946089A0498FFF755FF0498183080B26B
:10283000049009F101001FFA80F902988145EBDB51
:102840000BF118001FFA80FB0398504480B20390EC
:10285000781C87B2AF42BFDB09B0BDE8F08F000043
:102860005C9400200C0000200E0000209FEDFE0A6A
:10287000FE4880ED000A9FEDFC0A80ED010A9FED05
:10288000FA0A80ED020A9FEDF80A80ED030A9FED37
:10289000F60A80ED060A0020F44988834FF4487058
:1028A00008820020488288829FEDEF0A084680ED6A
:1028B000080A9FEDED0A80ED090A9FEDEB0A80ED15
:1028C0000A0A9FEDE90A80ED0B0A9FEDE70A80ED09
:1028D0000E0A002181874FF49671018600214186FE
:1028E0009621818670479FEDE00AE04880ED000A5E
:1028F0009FEDDD0A80ED010A9FEDDB0A80ED020A03
:102900009FEDD90A80ED030A9FEDD70A80ED060AF4
:102910000020D649888350200882962048828882E9
:102920009FEDD10A084680ED080A9FEDCF0A80EDA1
:10293000090A9FEDCD0A80ED0A0A9FEDCB0A80EDD2
:102940000B0A9FEDC90A80ED0E0A002181874FF422
:102950008C710186002141864FF496718186704703
:102960009FEDC10AC14880ED000A9FEDBF0A80EDCE
:10297000010A9FEDBD0A80ED020A9FEDBB0A80EDC2
:10298000030A9FEDB90A80ED060A0020B749888343
:102990004FF48C700882002048824FF4487088827F
:1029A0009FEDB10A084680ED080A9FEDAF0A80ED61
:1029B000090A9FEDAD0A80ED0A0A9FEDAB0A80ED92
:1029C0000B0A9FEDA90A80ED0E0A002181874FF4C2
:1029D0008C710186002141864FF4487181867047D1
:1029E0009FEDA10AA14880ED000A9FED9F0A80EDAE
:1029F000010A9FED9D0A80ED020A9FED9B0A80ED82
:102A0000030A9FED990A80ED060A00209749888302
:102A10004FF496700882002048824FF4F07088824C
:102A20009FED910A084680ED080A9FED8F0A80ED20
:102A3000090A9FED8D0A80ED0A0A9FED8B0A80ED51
:102A40000B0A9FED890A80ED0E0A002181874FF461
:102A500096710186002141864FF4F071818670479E
:102A60009FED810A814880ED000A9FED7F0A80ED8D
:102A7000010A9FED7D0A80ED020A9FED7B0A80ED41
:102A8000030A9FED790A80ED060A002077498883C2
:102A90004FF4C87008820020488288829FED720A35
:102AA000084680ED080A9FED700A80ED090A9FED47
:102AB0006E0A80ED0A0A9FED6C0A80ED0B0A9FED0D
:102AC0006A0A80ED0E0A002181874FF4C8710186E1
:102AD000002141868186704710B52DED028BB0EE46
:102AE000408A044601F0B6F9614800EB840090ED9D
:102AF000000A5E4800EB441080ED010A00205D49A9
:102B000008705A4800EB441090ED010AB5EEC00A77
:102B1000F1EE10FA0DD2554800EB441090ED010A89
:102B2000B1EE400A514800EB441080ED010A01204B
:102B300008704E4800EB441080ED008A4E48007843
:102B400098B94B4800EB840090ED000A4B4800EB2D
:102B50008400D0ED000A20EE200AB5EEC00AF1EEA6
:102B600010FA02DD0120444908704348007801282A
:102B70002DD13F4800EB840090ED000AB5EEC00A6D
:102B8000F1EE10FA0AD23A4800EB840090ED000A08
:102B9000B1EE400A3A4880ED000A07E0344800EB05
:102BA000840090ED000A364880ED000A344890ED2C
:102BB000000A3448D0ED000A30EE600A324880ED59
:102BC000000A2F4890ED000A2E4880ED000A2E489A
:102BD00090ED000AB5EEC00AF1EE10FA28D22348B3
:102BE00000EB441090ED000A2548D0ED000A30EECD
:102BF000600A264800EB840080ED000A1B4800EBC9
:102C00004410808B00EE100AB8EE400A174800EB23
:102C10004410D0ED020A30EE200ABCEEC00A10EEDD
:102C2000100A124901EB44118883002012490870F0
:102C30000E4800EB441090ED000A0C4800EB4410E5
:102C4000D0ED010A30EE600A084800EB441080ED38
:102C5000020A064800EB4410408A044901EB441183
:102C6000898B484314E00000000000006C940020B1
:102C700068950020DC3A0020DD3A00205C950020B9
:102C8000E43A0020E83A0020EC3A0020F03A002034
:102C900000EE100AB8EEC00AFE4800EB4410008AAD
:102CA00000EE900AF8EE600AFA4800EB441090ED4E
:102CB000021A00EE810AF74800EB4410D0ED020A38
:102CC000F44800EB441090ED031A30EEC11AF148BD
:102CD00000EB4410808A00EE900AF8EE600A00EEE5
:102CE000810AEC4800EB441080ED060AE94800EB4D
:102CF000441090ED020AE74800EB441080ED030A0F
:102D0000E44800EB441090ED060AE24800EB441062
:102D100080ED010ADF4800EB441090ED010ABCEEA3
:102D2000C00A10EE100A80B2BDEC028B10BD10B5C7
:102D30002DED028BB0EE408A044601F08BF8D648A8
:102D400000EB840090ED000AD24800EB441080EDC7
:102D5000010AD04800EB441080ED008ACD4800EB1A
:102D6000441090ED000ACB4800EB4410D0ED010A6E
:102D700030EE600AC74800EB441080ED020AC548F7
:102D800000EB4410808B00EE100AB8EE400AC148F8
:102D900000EB4410D0ED020A30EE200ABCEEC00A6F
:102DA00010EE100ABB4901EB44118883B94800EBCF
:102DB0004410008A00EE100AB8EE400AB54800EB55
:102DC0004410D0ED020A20EE200AB24800EB441075
:102DD000D0ED020AAF4800EB441090ED031A30EE3C
:102DE000C11AAC4800EB4410808A00EE900AF8EE5D
:102DF000600A00EE810AA74800EB441080ED060A45
:102E0000A44800EB441090ED020AA24800EB4410E5
:102E100080ED030A9F4800EB441090ED060A9D48A0
:102E200000EB441080ED010A9A4800EB441090ED4D
:102E3000010ABCEEC00A10EE100A80B2BDEC028B93
:102E400010BD944890ED0E0AB5EEC00AF1EE10FAEE
:102E50001BDD90ED0E0ADFED910AB4EEE00AF1EE13
:102E600010FA03DD9FED8D0A80ED0E0A894890ED82
:102E70000E0ABCEEC00A10EE100A80B28849086043
:102E800000208749083908602FE0824890ED0E0A3B
:102E9000B5EEC00AF1EE10FA21D290ED0E0AB1EEB5
:102EA000400A80ED0E0A90ED0E0ADFED7C0AB4EECA
:102EB000E00AF1EE10FA03DD9FED780A80ED0E0ACC
:102EC000002077490860734890ED0E0ABCEEC00AF6
:102ED00010EE100A80B272490839086005E000203F
:102EE0006F4908606E490839086070476A4890ED7C
:102EF000010A6C48D0ED010A20EE200AB5EEC00AA6
:102F0000F1EE10FA4FD2634890ED060AB5EEC00A12
:102F1000F1EE10FA1CDD90ED060ADFED600AB4EE6A
:102F2000E00AF1EE10FA03DD9FED5C0A80ED060A7F
:102F3000584890ED060ABCEEC00A10EE100A80B2A6
:102F40005749091F0860002055490C39086031E0D5
:102F5000504890ED060AB5EEC00AF1EE10FA29D2FB
:102F600090ED060AB1EE400A80ED060A90ED060AE1
:102F7000DFED4A0AB4EEE00AF1EE10FA03DD9FED50
:102F8000470A80ED060A00204549091F08604148AC
:102F900090ED060ABCEEC00A10EE100A80B240495D
:102FA0000C39086006E000203D49091F08603C49D3
:102FB0000C3908607047384890ED010A3948D0ED67
:102FC000010A20EE200AB5EEC00AF1EE10FA40D256
:102FD0003548007801281CD12E4890ED0E0ADFED0F
:102FE0002F0AB4EEE00AF1EE10FA03DD9FED2B0A92
:102FF00080ED0E0A274890ED0E0ABCEEC00A10EED6
:10300000100A80B226490839086000202449086067
:1030100025E02548007810BB1E4890ED0E0ADFED34
:103020001F0AB4EEE00AF1EE10FA03DD9FED1B0A71
:1030300080ED0E0A00201A4908390860154890ED05
:103040000E0ABCEEC00A10EE100A80B214490860E5
:1030500005E00020124908601149083908607047EE
:10306000104890ED010AB5EEC00AF1EE10FA04DD49
:103070000D480078C0430C4908700B4800780128BF
:103080002AD1044890ED0E0ADFED040AB4EEE00AFE
:103090000CE000006C9400206895002000C079448A
:1030A000400800405C950020DC3A0020F1EE10FA68
:1030B00003DD1FED060A80ED0E0AC44890ED0E0AEE
:1030C000BCEEC00A10EE100A80B2C14908600020B0
:1030D000BF490831086025E0BE480078E0B9BB4828
:1030E00090ED0E0A5FED130AB4EEE00AF1EE10FA6D
:1030F00003DD1FED160A80ED0E0A0020B4490860BA
:10310000B24890ED0E0ABCEEC00A10EE100A80B272
:10311000AF490831086005E00020AD49083108607A
:10312000AB4908607047AC4890ED000AB5EEC00AA4
:10313000F1EE10FA1CDDA54890ED0E0A5FED290AAC
:10314000B4EEE00AF1EE10FA03DD1FED2C0A80ED7B
:103150000E0A9E4890ED0E0ABCEEC00A10EE100A50
:1031600080B29B49086000209949083108602AE034
:10317000994890ED000AB5EEC00AF1EE10FA1CD2A3
:10318000924890ED0E0A5FED3B0AB4EEE00AF1EED4
:1031900010FA03DD1FED3F0A80ED0E0A00208C4976
:1031A00008608A4890ED0E0ABCEEC00A10EE100AC4
:1031B00080B287490831086005E000208449083161
:1031C0000860834908607047834890ED000AB5EEB7
:1031D000C00AF1EE10FA1CD27C4890ED0E0A5FEDA9
:1031E000510AB4EEE00AF1EE10FA03DD1FED550AC4
:1031F00080ED0E0A754890ED0E0ABCEEC00A10EE86
:10320000100A80B2724908600020714908310860D4
:103210002AE0714890ED000AB5EEC00AF1EE10FA0E
:103220001CDD6A4890ED0E0A5FED640AB4EEE00A18
:10323000F1EE10FA03DD1FED670A80ED0E0A0020A3
:1032400063490860614890ED0E0ABCEEC00A10EEBA
:10325000100A80B25E490831086005E000205C4930
:10326000083108605A49086070475B4890ED000AD1
:103270005A48D0ED000A20EE200AB5EEC00AF1EE61
:1032800010FA42D25348007801281DD14F4890EDE2
:10329000060A5FED7E0AB4EEE00AF1EE10FA03DDF5
:1032A0001FED820A80ED060A484890ED060ABCEE42
:1032B000C00A10EE100A80B24549091F08600020BC
:1032C0004349091D086027E04248007820BB3F4879
:1032D00090ED060A5FED8F0AB4EEE00AF1EE10FA07
:1032E00003DD1FED920A80ED060A00203849091F10
:1032F0000860364890ED060ABCEEC00A10EE100ACF
:1033000080B23349091D086006E064203049091D78
:1033100008602F49091F08607047304890ED000A87
:10332000B5EEC00AF1EE10FA04DD2A480078C04379
:10333000284908702748007801281DD1234890EDBE
:10334000060A5FEDAA0AB4EEE00AF1EE10FA03DD18
:103350001FEDAE0A80ED060A1C4890ED060ABCEE91
:10336000C00A10EE100A80B21949091F0860002037
:103370001749091D086027E016480078E8B9134886
:1033800090ED060A5FEDBB0AB4EEE00AF1EE10FA2A
:1033900003DD1FEDBE0A80ED060A00200C49091F5F
:1033A00008600A4890ED060ABCEEC00A10EE100A4A
:1033B00080B20749091D086006E064200449091D20
:1033C00008600349091F0860704700006C940020E2
:1033D00038080040DC3A0020689500205C95002009
:1033E00010B50121404803F0F2F8012805D13F480B
:1033F0000088FEF730FDFEF755FD01213A4803F045
:10340000F7F810BD10B50121394803F0E0F80121AB
:10341000374803F0EDF810BD10B50121354803F031
:10342000D6F80121334803F0E3F810BD10B5324956
:10343000324803F03FFB01280FD1314800884FF498
:10344000A571484340F6FF7190FBF1F027490880D1
:1034500029492A4803F058FB14E02A49274803F079
:1034600029FB012804D12749244803F04DFB09E03A
:103470002549224803F01EFB012803D122491F4899
:1034800003F042FB10BD10B540F225511F4803F078
:103490003FFD38B31D4803F079FC1D491D4A1278E1
:1034A00088541C48007820B908460078552800D078
:1034B00010BD18480078401C16490870084600786E
:1034C0000B280FD1144812490A6802604A6842600A
:1034D0000A890281897A817200200E4908700120D0
:1034E0000E49087000BFE3E7001400405858002060
:1034F00000400140000C0040208000101064024099
:1035000000000020104000100820001000140140AE
:10351000EC94002048930020389500204993002027
:1035200010B5FA4A0B214FF49670FFF713F9F84AD9
:1035300002214FF4F070FFF70DF9F64A072140F22F
:10354000F910FFF707F910BD08B5FDF75BFAEF4A70
:103550000B216420FFF7FEF8ED4A02218220FFF7DD
:10356000F9F840F2FF70EC4908800020EBA3182224
:103570004FF4967100901420FEF7CCFF0020EBA3CF
:1035800018224FF4AE7100901420FEF7C3FF002004
:10359000EAA318224FF4C67100901420FEF7BAFF78
:1035A0000020EAA318224FF4DE7100901420FEF7E9
:1035B000B1FF44F2FF10D84908800020E7A3182289
:1035C0004FF496710090FE20FEF7A4FF0020E8A3C0
:1035D00018224FF4AE710090FE20FEF79BFF0020F2
:1035E000E8A318224FF4C6710090FE20FEF792FF68
:1035F0000020E9A318224FF4DE710090FE20FEF7B0
:1036000089FF4FF4FC60C4490880E8A218214FF4F8
:103610002F70FEF7C3FF4FF4FC60BF49088008BD60
:1036200008B5FDF7EFF94FF6F730BB490880DFA288
:1036300018211E20FEF7B2FF0020DEA318221E2153
:1036400000904FF4B470FEF765FF4FF442734FF4EF
:10365000E4723C211820FEF7A6FD4FF6FF70AE493C
:1036600008800020D6A31822482100902420FEF7CD
:1036700051FF0020D5A31822602100902420FEF7DE
:1036800049FF4FF4FC60A449088008BD08B5FDF768
:10369000B9F940F2FF70A0490880A0A218211E20AD
:1036A000FEF77CFF4FF442734FF4E4723C21182084
:1036B000FEF779FD4FF6E070974908800020C6A319
:1036C0001822602100902420FEF724FF0020CAA3C6
:1036D0001822782100902420FEF71CFF0020CFA3A1
:1036E0001822902100902420FEF714FF0020D6A37A
:1036F0001822C82100902420FEF70CFF0020D5A33B
:103700001822E02100902420FEF704FF0020D4A31B
:103710001822F82100902420FEF7FCFE4FF4FC60F4
:103720007D49088008BD08B5FDF76CF940F2FF70CF
:10373000794908807DA218211E20FEF72FFF4FF443
:1037400042734FF4E4723C211820FEF72CFD4FF633
:10375000E070714908800020C4A318226021009005
:103760002420FEF7D7FE0020C9A31822782100905C
:103770002420FEF7CFFE0020A8A31822902100905D
:103780002420FEF7C7FE0020C3A31822C821009002
:103790002420FEF7BFFE0020C3A31822E0210090E2
:1037A0002420FEF7B7FE0020C3A31822F8210090C2
:1037B0002420FEF7AFFE0020C3A318224FF4887127
:1037C00000902420FEF7A6FE4FF4FC6052490880CA
:1037D00008BD08B5FDF716F940F2FF704E490880A4
:1037E00056A218211E20FEF7D9FE4FF442734FF463
:1037F000E4723C211820FEF7D6FC4FF6E0704649F3
:1038000008800020B4A31822602100902420FEF735
:1038100081FE0020B8A31822782100902420FEF712
:1038200079FE0020BFA31822C82100902420FEF7B3
:1038300071FE0020C0A31822E02100902420FEF792
:1038400069FE0020C1A31822F82100902420FEF771
:1038500061FE0020C2A318224FF48871009024203A
:10386000FEF758FE4FF4FC602B49088008BD08B5F0
:10387000FDF7C8F840F2FF702749088033A21821ED
:103880001E20FEF78BFE4FF442734FF4E4723C218E
:103890001820FEF788FC4FF6E0701F4908800020D2
:1038A000B4A31822602100902420FEF733FE0020EC
:1038B000B9A31822782100902420FEF72BFE0020C7
:1038C000BDA31822902100902420FEF723FE0020A3
:1038D00094A31822C82100902420FEF71BFE00208C
:1038E0009AA31822F82100902420FEF713FE00204E
:1038F0009BA318224FF4887100902420FEF70AFE43
:103900004FF4FC600449088008BD000020700020CE
:1039100038730020C87300200C00002042617365DA
:103920002046756E6374696F6E2031004261736565
:103930002046756E6374696F6E2032004261736554
:103940002046756E6374696F6E2033004261736543
:103950002046756E6374696F6E203400496D707215
:103960006F76652046756E6374696F6E2031000056
:10397000496D70726F76652046756E6374696F6EFF
:1039800020320000496D70726F76652046756E6357
:1039900074696F6E20330000496D70726F76652018
:1039A00046756E6374696F6E203400004D454D5549
:1039B00000000000543A2020202020430000000096
:1039C0004465627567202020207C00004E524632FC
:1039D000344C3031207C00004F6E207468652067C5
:1039E000726F756E6420746F206472617720616CF1
:1039F000656E67740000000073686F7274657220F2
:103A00007468616E203530636D206F66206C696E5E
:103A100065207365676D656E74732C006572726FD7
:103A20007220322E35636D2C20616E6420776974AC
:103A30006820676F6F6420726570726F6475636968
:103A400062696C6974792E00537461747573203ADD
:103A500000000000416E676C6520203A0000000005
:103A60006C656E677468203A0000000053686F77D9
:103A70006E20696E207468652033302D3630636D9A
:103A8000206C656E6774682063616E20626500005B
:103A90007365742C000000005374617475732020EA
:103AA00020202020203A0000676F616C206C656E3A
:103AB00067746820203A0000416E676C6520202002
:103AC00020202020203A00006C656E67746820205A
:103AD00020202020203A000053657420746865205F
:103AE000646972656374696F6E206F6620746865BF
:103AF000207377696E672C00647261772061207390
:103B000074726169676874206C696E65206E6F7489
:103B1000206C657373207468616E203230636D2E83
:103B20000000000053746174757320202020202051
:103B30002020203A00000000676F616C20646972E9
:103B4000656374696F6E203A00000000416E676C17
:103B500065202020202020202020203A0000000086
:103B60006C656E6774682020202020202020203A79
:103B7000000000005468652077696E642070756CE1
:103B80006C656420617420616E20616E676C6520D5
:103B90007377696E670000002833302D3435292093
:103BA0006F70656E2077697468696E203520736563
:103BB000636F6E6473000000736F2074686174201B
:103BC0007468652077696E64207377696E67206218
:103BD00072616B650000000008B5FCF713FF44F24A
:103BE000FF1074490880AFF28C2218211E20FEF7C6
:103BF000D5FC4FF442734FF4E4723C211820FEF7D9
:103C0000D2FA4FF6E0706B49088000206AA31822B0
:103C1000602100902420FEF77DFC00206EA3182276
:103C2000782100902420FEF775FC002073A3182251
:103C3000902100902420FEF76DFC002077A318222D
:103C4000A82100902420FEF765FC0020AFF22C1381
:103C50001822C82100902420FEF75CFC002073A3EA
:103C60001822F82100902420FEF754FC002074A3B1
:103C700018224FF4887100902420FEF74BFC962206
:103C80009100F020FEF7AFFA4FF4FC60494908803C
:103C900008BD08B5FCF7B6FE44F2FF1045490880A0
:103CA000AFF2343218211E20FEF778FC4FF4427335
:103CB0004FF4E4723C211820FEF775FA4FF6E070DD
:103CC0003C49088000203CA3182260210090242059
:103CD000FEF720FC002040A3182278210090242029
:103CE000FEF718FC002045A3182290210090242004
:103CF000FEF710FC002049A31822A82100902420E0
:103D0000FEF708FC0020AFF2E4131822C82100904F
:103D10002420FEF7FFFB002044A31822F821009086
:103D20002420FEF7F7FB002045A318224FF48871EA
:103D300000902420FEF7EEFB96229100F020FEF783
:103D400052FA4FF4FC601B49088008BD10B5FCF71F
:103D500059FE44F2FF1017490880AFF2D8321821FB
:103D60001E20FEF71BFC4FF442734FF4E4723C211B
:103D70001820FEF718FA4FF4FC600E49088010BDB9
:103D800010B5FCF73FFE44F2FF100A490880AFF27D
:103D9000F83218211E20FEF701FC4FF442734FF455
:103DA000E4723C211820FEF7FEF94FF4FC60014953
:103DB000088010BD0C000020536574207261646996
:103DC00075732031352D3335636D20726F756E64D8
:103DD0002C206C6173657200706F696E746572205F
:103DE000746F2064726177207468652074726163F7
:103DF0006B2C20726570656174656400746872650F
:103E0000652074696D65732077697468696E203305
:103E100030207365636F6E64732C00006572726F7F
:103E20007220322E35636D2E000000005365742021
:103E300052616469757320202020203A0000000040
:103E40005261646975732020202020202020203AB0
:103E50000000000000B52DED068B83B0C6E1FE48E2
:103E600001680091416801910189ADF80810807ADC
:103E70008DF80A000020F9490870F74800785528A5
:103E8000ECD1F5484078512804D052287ED05328F0
:103E90007DD114E19DF802109DF8032041EA022132
:103EA00008B203F02FFF41EC1A0B9FEDED0B53EC22
:103EB000102B03F0B8FE41EC190B9FEDEB0B53EC0C
:103EC000102B03F03EFE41EC180B03F04CFFE849C9
:103ED00008609DF804109DF8052041EA022108B20F
:103EE00003F010FF41EC1A0B9FEDDD0B53EC102B90
:103EF00003F099FE41EC190B9FEDDB0B53EC102BFB
:103F000003F01FFE41EC180B03F02DFFD849486069
:103F10009DF806109DF8072041EA022108B203F03F
:103F2000F1FE41EC1A0B9FEDCE0B53EC102B03F07E
:103F30007AFE41EC190B9FEDCC0B53EC102B03F0E8
:103F400000FE41EC180B03F00EFFC94988609DF894
:103F500008109DF8092041EA022108B203F0D2FEC0
:103F600041EC1A0B9FEDC30B53EC102B03F05BFEDF
:103F700041EC190B9FEDC10B53EC102B03F03AFDF4
:103F800041EC180B03F0EFFEBE4901E002E02BE12B
:103F900008602AE19DF802109DF8032041EA022101
:103FA00008B203F0AFFE41EC1A0B9FEDAD0B53ECE2
:103FB000102B03F038FE41EC190B9FEDB30B53ECC3
:103FC000102B03F0BEFD41EC180B03F0CCFEB04902
:103FD00008609DF804109DF8052041EA022108B20E
:103FE00003F090FE41EC1A0B9FED9D0B53EC102B50
:103FF00003F019FE41EC190B9FEDA30B53EC102BB2
:1040000003F09FFD41EC180B03F0ADFEA0494860A2
:104010009DF806109DF8072041EA022108B203F03E
:1040200071FE41EC1A0B9FED8E0B53EC102B03F03D
:10403000FAFD41EC190B9FED940B53EC102B03F0A0
:1040400080FD41EC180B03F08EFE91498860914889
:104050000078A0B1084690ED000A8F48D0ED000A24
:1040600030EE600A084680ED000A90ED010A8B48A8
:10407000D0ED000A30EE600A084680ED010A9DF896
:1040800008109DF8092041EA022108B203F03AFE27
:1040900041EC1A0B9FED770B53EC102B03F0C3FD93
:1040A00041EC190B9FED750B53EC102B03F0A2FCA8
:1040B00041EC180B03F057FE7249086095E09DF83B
:1040C00002109DF8032041EA022108B203F01AFE13
:1040D00041EC1A0B9FED620B53EC102B03F0A3FD88
:1040E00041EC190B9FED6E0B53EC102B03F029FDE7
:1040F00041EC180B03F037FE6B4908609DF8041083
:104100009DF8052041EA022108B203F0FBFD41ECD5
:104110001A0B9FED530B53EC102B03F084FD41EC75
:10412000190B9FED5F0B53EC102B03F00AFD41ECD4
:10413000180B03F018FE5C4948609DF806109DF8C6
:10414000072041EA022108B203F0DCFD41EC1A0B22
:104150009FED430B53EC102B03F065FD41EC190B65
:104160009FED4F0B53EC102B03F0EBFC41EC180BC5
:1041700003F0F9FD4C4988609DF808109DF809206E
:1041800041EA022108B203F0BDFD41EC1A0B9FED9C
:10419000390B53EC102B03F046FD41EC190B9FED4E
:1041A000370B53EC102B03F025FC41EC180B03F0FC
:1041B000DAFD3449086037480078A0B13A4890EDFC
:1041C000000A3A48D0ED000A30EE600A364880ED29
:1041D000000A90ED010A3648D0ED000A30EE600A80
:1041E000314880ED010A00E000BF00BF1B480078A5
:1041F00000287FF434AE03B0BDEC068B00BD10B5D3
:1042000000245EE0FFF726FE274890ED000A2748CD
:10421000D0ED000A30EE200A80ED000A224890ED31
:10422000010A2348D0ED000A30EE200A80ED000A92
:10423000174890ED000A1848D0ED000A30EE200A29
:1042400080ED000A124890ED010A1448D0ED000AF2
:1042500030EE200A2EE0000038950020499300201F
:10426000000000000000E0400000000000003040BE
:104270005095002000000000004075400000000044
:10428000002042404C9300200000000000409F406E
:104290005C950020509300205C93002060930020E8
:1042A00000000000008066406895002054930020C4
:1042B0005893002080ED000A0A2000F015FF601CD2
:1042C000C4B20A2C9EDBFB4890ED000AF2EE040A11
:1042D00080EE201A80ED001AF74890ED000AF2EE09
:1042E000040A80EE201A80ED001AF44890ED000ACE
:1042F000F2EE040A80EE201A80ED001AF04890EDEC
:10430000000AF2EE040A80EE201A80ED001A012065
:10431000EC49087010BD10B500220121EA4802F0F6
:104320003FF9FEF7A3FAFCF72CF8FFF768FFFCF75C
:10433000D5F800BFE54800680028FBD040F2E73020
:10434000E3490860FA2000F0CFFE10BD10B5FFF77A
:1043500081FD00209FEDDF0AFEF7BEFBFEF785FF23
:1043600010BD10B50AE0FFF775FD01209FEDDA0AD8
:10437000FEF7DDFCFEF765FDFFF7E8FFD74890ED9F
:10438000000AF3EE000AB4EEE00AF1EE10FA08D2E9
:1043900090ED000AFBEE000AB4EEE00AF1EE10FA2E
:1043A000E1DCCE4890ED000AF2EE0E0AB4EEE00A2F
:1043B000F1EE10FA08DC90ED000AFAEE0E0AB4EE07
:1043C000E00AF1EE10FA02D20020C5490860002090
:1043D000B3EE010AFEF780FBFEF747FF10BD10B5F4
:1043E0000020BB49091D0860B9490C310860B84973
:1043F0000860B749083108600120B9490860FDF735
:1044000058FC10BD10B5FFF786FF01E0FFF7A9FFCC
:10441000AE4800680028F9D0FFF7E1FF10BD00B5F5
:1044200087B01E20AF49087048E0AF4800783728B1
:1044300008DDAC480078401CAA4908703220AA491F
:10444000087025E0A8480078232808DAA5480078F5
:10445000401EA44908703220A349087018E0A34800
:104460000078372808DD9F4800780A309D49087099
:1044700032209E4908700BE09C4800782D2807DA0E
:10448000984800780A389749087032209749087090
:104490009448027896A102A803F000FE002095A39C
:1044A0001822E0210090CC20FEF734F8002002AB67
:1044B0001822E0210090CC20FEF72CF88F480078DD
:1044C0000028B2D007B000BD10B52DED088BFFF766
:1044D000A6FF8449087800EBD0714910814A117019
:1044E00000220121784802F05BF8FEF7FCF9FBF7A7
:1044F00048FFFFF784FEFBF7F1FF7A48007803F0EE
:1045000012FC41EC1B0B9FED7E1BB0EE4B0AF0EE54
:104510006B0A03F05DFFB0EE40AAF0EE60AA1FED5B
:10452000A00B53EC102B51EC1A0B03F00AFB41ECDF
:10453000190B9FED750B53EC102B03F074FB41EC42
:10454000180B03F010FC7249086000BF5F48006858
:104550000028FBD040F2E7305D490860FA2000F007
:10456000C3FD0FE0FFF776FC01209FED5B0AFEF72D
:10457000DEFBFEF766FC00209FED560AFEF7ACFA64
:10458000FEF773FE624890ED000AF7EE080A80EE2F
:10459000201A524890ED000AB4EEC01AF1EE10FA5B
:1045A00010DD5B4890ED000AB1EE400AB7EE081A44
:1045B000C0EE010A494890ED000AF4EEC00AF1EE9F
:1045C00010FACFD337E0FFF745FC444890ED000ADE
:1045D0004F48D0ED000AB4EEE00AF1EE10FA03DD28
:1045E00037204C49088202E055204A490882FFF7EB
:1045F000ADFE01209FED380AFEF799FBFEF721FC86
:10460000364890ED000A4248D0ED000AB4EEE00AC8
:10461000F1EE10FA0CDC314890ED000A3C48D0ED88
:10462000000AF1EE600AB4EEE00AF1EE10FA02D2EE
:1046300000202B490860294890ED000A3448D0ED4D
:10464000000AB4EEE00AF1EE10FA0CD2234890ED25
:10465000000A2F48D0ED000AF1EE600AB4EEE00A3D
:10466000F1EE10FAAFDCBDEC088B10BD10B5FFF712
:10467000F1FB01209FED180AFEF759FBFEF7E1FB65
:104680000020234991ED000AFEF726FAFEF7EDFD22
:1046900010BD10B500200E49091D08600C490C31F1
:1046A00008600B4908600A4908310860FDF701FB02
:1046B00010BD000058930020549300205C9300200C
:1046C00060930020509300200014004000024042FC
:1046D000340800400000A04200000000689500205F
:1046E0009882424238930020751D0020761D0020DC
:1046F000256400002020202000000000771D0020FD
:1047000000000000000056401F85EB51B81E094014
:1047100034930020F894002010B5FFF7D5FE01E097
:10472000FFF7A4FFFE4800680028F9D0FFF7B1FFAB
:1047300010BD00B52DED028B87B01FED190AF948A9
:1047400080ED000A62E0F848007837280CDDF54873
:1047500090ED000AF7EE000A30EE200A80ED000A24
:104760003220F149087031E0EF4800782D280CDA4A
:10477000EC4890ED000AF7EE000A30EE600A80ED9A
:10478000000A3220E849087020E0E848007837281D
:104790000CDDE44890ED000AF2EE040A30EE200A47
:1047A00080ED000A3220E14908700FE0DF48007810
:1047B0002D280BDADB4890ED000AF2EE040A30EE09
:1047C000600A80ED000A3220D8490870D548006898
:1047D00003F0B6FA41EC180B53EC182BD4A102A845
:1047E00003F05CFC0020AFF2F4031822E0210090FB
:1047F000E420FDF78FFE002002AB1822E02100909C
:10480000E420FDF787FEC82000F06EFCCA4800785F
:10481000002898D007B0BDEC028B00BD10B52DED7F
:10482000068BFFF786FF00220121C44801F0B8FE85
:10483000FEF796F8FBF7A5FDFFF7E1FCFBF74EFE50
:10484000B84890ED000AB5EEC00AF1EE10FA07D2B2
:1048500090ED000ADFEDBA0A30EE200A80ED000A82
:104860001FED591B9FEDB70B03F0B2FDB0EE40AA50
:10487000F0EE60AA9FEDB50B53EC102B51EC1A0B28
:1048800003F05FF941EC190B1FED610B53EC102B9A
:1048900003F0C9F941EC180B03F065FAAD49086063
:1048A000A04890ED000ADFEDA60A80EE201A11EE76
:1048B000104A204603F044FA41EC190B1FED6E0B31
:1048C00053EC102B03F03DF941EC180B03F04BFABD
:1048D000A149086000BF924800680028FBD040F260
:1048E000E7309E490860FA2000F0FEFBBDEC068B25
:1048F00010BD10B58B4890ED000AB5EEC00AF1EE80
:1049000010FA08D090ED000ADFED8D0AB4EE600ACF
:10491000F1EE10FA0AD1FFF79DFA01208D4991EDD1
:10492000000AFEF7D9F8FEF746FB4CE07D4890ED13
:10493000000ADFED8B0AB4EE600AF1EE10FA0AD13C
:10494000FFF788FA0020834991ED000AFEF7C4F8CA
:10495000FEF78BFC37E0FFF77DFA00207D4991EDF3
:10496000000AFEF7B9F8FEF780FC0120B0EE480A15
:10497000FEF7B2F86B4890ED000AB5EEC00AF1EE12
:1049800010FA0BDD90ED000ADFED750AB4EEE00AD7
:10499000F1EE10FA02D2FEF7C6FB14E0614890ED8A
:1049A000000ADFED6F0AB4EEE00AF1EE10FA0ADD5C
:1049B00090ED000ADFED620AB4EEE00AF1EE10FAC3
:1049C00001D2FEF701FC674890ED010AB4EEC80A77
:1049D000F1EE10FA09DD90ED000A5E48D0ED000A14
:1049E000B4EEE00AF1EE10FA13DC5E4890ED010A35
:1049F000F1EE480AB4EEE00AF1EE10FA0CD290EDB6
:104A0000000A5448D0ED000AB4EEE00AF1EE10FAC4
:104A100002D200205449086010BD10B500204F4953
:104A2000091D08604D490C3108604C4908604B492C
:104A300008310860FDF73DF910BD10B5FFF7EEFE37
:104A400001E0FFF756FF364800680028F9D0FFF76D
:104A5000E4FF10BD10B500220121384801F0A0FD8F
:104A6000FDF7BEFFFBF78DFCFFF7C9FBFBF736FD3B
:104A700000BF2B4800680028FBD04FF4C87000F03E
:104A800033FB10BD10B5FFF7E5F901201FEDEE0A6D
:104A9000FEF74DF9FEF7D5F900201FEDF10AFEF7FC
:104AA00046F9FEF723FA314890ED000AFEEE000ABF
:104AB000B4EEE00AF1EE10FA6BDD90ED000AF6EECE
:104AC000000AB4EEE00AF1EE10FA62D290ED010AAB
:104AD000FEEE000AB4EEE00AF1EE10FA59DD90EDB8
:104AE000010AF6EE000AB4EEE00AF1EE10FA50D236
:104AF0001C4890ED000AFEEE000AB4EEE00AF1EE6A
:104B000010FA46DD90ED000AF6EE000AB4EEE00A77
:104B1000F1EE10FA3DD290ED010AFEEE000A27E018
:104B20000002404240930020751D0020761D0020A9
:104B3000252E326600000000771D00200014004082
:104B4000000034430000000000002E400000000080
:104B500000806640349300203C93002034080040DD
:104B60000000B44268950020988242425C95002083
:104B7000B4EEE00AF1EE10FA0BDD90ED010AF6EE6C
:104B8000000AB4EEE00AF1EE10FA02D20020A349C6
:104B9000086010BD10B50020A1490860A049083187
:104BA00008609F49091F08609D49091D0860FDF7BD
:104BB00080F810BD10B5FFF74DFF01E0FFF762FF71
:104BC000984800680028F9D0FFF7E4FF10BD00B551
:104BD00087B00F20944908704DE09448007837283A
:104BE00008DD91480078401C8F49087032208F49B9
:104BF000087025E08D4800782D2808DA8A4800786A
:104C0000401E8949087032208849087018E0884899
:104C10000078372808DD844800780A308249087017
:104C20003220834908700BE0814800782D2807DA8C
:104C30007D4800780A387C49087032207C49087029
:104C400079480278AFF2585102A803F027FA002001
:104C5000AFF260531822E0210090E420FDF75AFCE7
:104C6000002002AB1822E0210090E420FDF752FC66
:104C7000642000F039FA6F4800780028ADD007B002
:104C800000BD10B52DED088BFFF7A1FF002201211B
:104C9000694801F085FCFDF7E3FEFBF772FBFFF7C7
:104CA000AEFAFBF71BFC00BF5E4800680028FBD093
:104CB0004FF4C87000F018FA5B48007803F033F83E
:104CC00041EC1B0B9FED5D1BB0EE4B0AF0EE6B0A47
:104CD00003F07EFBB0EE40AAF0EE60AA1FED650B7C
:104CE00053EC102B51EC1A0B02F02BFF41EC190B7B
:104CF0009FED540B53EC102B02F095FF41EC180B79
:104D000003F031F8514908600FE0FFF7A3F80120E4
:104D10009FED4F0AFDF7E0FEFEF74DF900209FEDF5
:104D20004C0AFDF7D9FEFEF7A0FA4A4890ED000ABA
:104D30004648D0ED000AB0EE001A70EEC10AB4EE9B
:104D4000E00AF1EE10FA10D2424890ED000A3F4816
:104D5000D0ED000AF1EE600AB0EE001A70EE810AA2
:104D6000B4EEE00AF1EE10FACFDCBDEC088B10BD1A
:104D700010B5FFF76FF80020344991ED000AFDF7F8
:104D8000ABFEFEF772FA0120304991ED000AFDF703
:104D9000A3FEFEF710F92F4890ED000AF1EE680A25
:104DA000B4EEE00AF1EE10FA19DD90ED000AB4EE6F
:104DB000E80AF1EE10FA12D290ED010AF1EE480A7B
:104DC000B4EEE00AF1EE10FA09DD90ED010AB4EE5E
:104DD000C80AF1EE10FA02D200201049086010BD96
:104DE00010B500200E4908600D49083108600C49D3
:104DF000091F08600A49091D0860FCF75AFF10BD29
:104E000010B5FFF73EFF01E0FFF7B2FF054800686D
:104E10000028F9D0FFF7E4FF10BD0000988242425D
:104E2000380800400002404244930020751D0020D5
:104E3000761D0020771D00200014004000000000B7
:104E4000000056401F85EB51B81E094034930020E6
:104E50000000A04268950020704700BFFEE700BF39
:104E6000FEE700BFFEE700BFFEE7704770477047F0
:104E7000704700000CB50020019000907648006853
:104E800040F480307449086000BF7348006800F443
:104E9000003000900198401C0190009818B90198CA
:104EA000B0F5A04FF1D16C48006800F4003010B1AB
:104EB0000120009001E0002000900098012846D1D8
:104EC00065484030006840F08050634940310860D8
:104ED0006248006840F44040604908605E4808301D
:104EE00000685D49083108600846006840F40040E9
:104EF00008600846006840F4A05008605848091F40
:104F00000860081F006840F08070091F086000BF3B
:104F10005148006800F000700028F9D040F2057098
:104F2000504908604C480830006820F003004A49A6
:104F3000083108600846006840F00200086000BFC1
:104F400045480830006800F00C000828F8D10CBD76
:104F500010B54548006840F47000434908603E4879
:104F6000006840F001003C49086000203A490831DF
:104F70000860394800683D490840374908603C48A6
:104F8000091D0860081F006820F48020091F0860C0
:104F9000002031490C310860FFF76CFF4FF00060D2
:104FA00031498039086010BD70B50020002202230D
:104FB00000240221284D08352D6805F00C0020B191
:104FC000042806D0082834D107E02A4D2A4E35603F
:104FD00033E02A4D284E35602FE01F4D2D1D2D68E2
:104FE000C5F380541C4D2D1D2D6805F03F0154B1B3
:104FF000224DB5FBF1F5184E361D3668C6F38816FE
:1050000005FB06F209E01B4DB5FBF1F5124E361D0E
:105010003668C6F3881605FB06F20F4D2D1D2D6868
:10502000C5F301456D1C6B00B2FBF3F5124E356004
:1050300003E0104D104E356000BF00BF064D08352F
:105040002D68C5F303150E4E705D0B4D2D68C540E0
:10505000094E356070BD000000380240007000400D
:1050600019544007003C024088ED00E0FFFFF6FEC7
:10507000103000240024F4006893002000127A000D
:105080006C93002010B56FF0040000F01DFD254862
:1050900000682549B0FBF1F02449088021480068E8
:1050A0004FF4FA51B0FBF1F02149086010BD01B591
:1050B0001E4A1288009951434FF0E02251610021AD
:1050C00091610121116100BF4FF0E021086900F0FA
:1050D000010119B100F480310029F5D000214FF011
:1050E000E0221161916108BD01B5BDF80010104AC0
:1050F000126851434FF0E02251610021916101217A
:10510000116100BF4FF0E021086900F0010119B101
:1051100000F480310029F5D000214FF0E022116128
:10512000916108BD6893002000127A007C930020F2
:1051300080930020F948006840F00100F7490860BA
:105140000020F64908310860F4480068F449084036
:10515000F2490860F348091D0860F348EF498431BB
:105160000860F0481038091D0860EC48006820F419
:105170008020EA4908600020E8490C310860E749CE
:105180008C31086070470021E44A921C117011466E
:105190000870704710B501460022002300204A1114
:1051A000012A02D1DD4C236808E0022A03D1DB4C3E
:1051B0007034236802E0D94C7434236801F01F0274
:1051C000012494401C400CB1012000E0002010BDDF
:1051D00038B5002000900024002500BF3120FFF7E3
:1051E000D9FF05460098401C00900098B0F5A04FEC
:1051F00001D0002DF2D03120FFF7CCFF08B10124FF
:1052000000E00024204638BD01460020C34A106853
:1052100020F0F80040EAC10010607047C349086000
:1052200070470021BD4A703211701170012802D000
:1052300004280AD104E00121B84A7032117005E057
:105240000521B64A7032117000E000BF00BF704700
:10525000B7490860704770B5049C41EA8215012681
:10526000C6EB530645EA0645054345EA0465AB4EE1
:10527000361D356070BDAD4908667047820142EA4F
:105280000172A64B84331A607047A849886670473C
:1052900010B5830143EA016343EA02739F4C8834EB
:1052A000236010BDA14908677047A049C8647047D2
:1052B00002460020994B0833186820F0EC6042EA5F
:1052C00001031843954B08331860704702460020CD
:1052D000924B0833186820F0784042EA01031843E3
:1052E0008E4B083318607047014600208B4A083205
:1052F000106820F0030008431060704787480830AA
:10530000006800F00C00704701460020834A083214
:10531000106820F0F000084310607047014600203C
:105320007E4A0832106820F4E0500843106070474D
:1053300001460020794A0832106820F4604040EAB3
:10534000C10010607047F0B5002100220024022542
:1053500000260223714F08373F6807F00C0121B186
:10536000042905D0082937D105E0724F076036E0DF
:10537000714F076033E0694F3F1D3F68C7F38056A8
:10538000664F3F1D3F6807F03F036EB16A4FB7FBA2
:10539000F3F7DFF888C10CF1040CDCF800C0CCF3A3
:1053A000881C07FB0CF40CE0624FB7FBF3F7DFF847
:1053B0006CC10CF1040CDCF800C0CCF3881C07FBBA
:1053C0000CF4564F3F1D3F68C7F301477F1C7D001B
:1053D000B4FBF5F7076002E0564F076000BF00BF5F
:1053E0004E4F08373F6807F0F0010909534F7A5CC8
:1053F0000768D7404760494F08373F6807F4E051D6
:10540000890A4E4F7A5C4768D7408760434F083718
:105410003F6807F46041490B484F7A5C4768D740C2
:10542000C760F0BD002100F44072B2F5407F0AD1A0
:105430003A4A0832116821F4F811414A02401143F6
:10544000364A08321160354A70321268C0F30B03D5
:105450001A43324B70331A6070473549443908603B
:1054600070473349403908607047364908607047D3
:1054700001460020294A8C32106820F01F004A1E85
:105480001043264A8C321060704701460020234AA0
:105490008C32106820F4F8504A1E40EA02201F4A5D
:1054A0008C3210607047014600201C4A8C32106814
:1054B00020F4401008431060704701460020174A4E
:1054C0008C32106820F44000084310607047014699
:1054D0000020124A8C32106820F4403008431060DB
:1054E000704719490860704739B10C4A3032126868
:1054F00002430A4B30331A6006E0084A3032126821
:105500008243064B30331A607047F9B1034A343294
:1055100012680243014B34331A601CE00038024029
:10552000FFFFF6EA10300024003000200000474260
:10553000800E47420024F40000127A008493002079
:10554000FFFCFF0F5C014742E01147428F4A12689F
:1055500082438E4B1A60704739B18C4A121D126813
:1055600002438A4B1B1D1A6006E0884A121D12680E
:105570008243864B1B1D1A60704739B1834A0C3237
:1055800012680243814B0C331A6006E07F4A0C32EA
:10559000126882437D4B0C331A60704739B17B4AE5
:1055A000103212680243794B10331A6006E0774AD2
:1055B000103212688243754B10331A60704739B14C
:1055C000724A243A12680243704B243B1A6006E088
:1055D0006E4A243A126882436C4B243B1A6070472F
:1055E00039B16A4A203A12680243684B203B1A607C
:1055F00006E0664A203A12688243644B203B1A60F8
:10560000704739B1614A1C3A126802435F4B1C3B38
:105610001A6006E05D4A1C3A126882435B4B1C3BF1
:105620001A60704739B1594A143A12680243574B0D
:10563000143B1A6006E0554A143A12688243534BF1
:10564000143B1A60704739B1504A103A126802434D
:105650004E4B103B1A6006E04C4A103A12688243E7
:105660004A4B103B1A60704739B1484A1C321268E5
:105670000243464B1C331A6006E0444A1C3212684F
:105680008243424B1C331A60704739B13F4A203283
:10569000126802433D4B20331A6006E03B4A203239
:1056A00012688243394B20331A60704739B1374A48
:1056B000243212680243354B24331A6006E0334A21
:1056C000243212688243314B24331A60704739B157
:1056D0002E4A2C32126802432C4B2C331A6006E0FF
:1056E0002A4A2C3212688243284B2C331A607047A6
:1056F00039B1264A303212680243244B30331A60E3
:1057000006E0224A303212688243204B30331A605E
:105710007047012808D11D493C31096841F0080152
:105720001A4A3C32116007E018493C31096821F0FF
:105730000801164A3C321160704739B1134A273AC2
:1057400012780243114B273B1A7006E00F4A273AA2
:10575000127882430D4B273B1A7070470B4840303C
:10576000006840F080700949403108607047014688
:105770000020064A283A12680A400AB1012000E0D7
:1057800000207047014926390870704734380240BC
:1057900010B504469848844208D101210846FFF715
:1057A0000EFF00210120FFF70AFF76E093488442B4
:1057B00008D101210220FFF702FF00210220FFF79C
:1057C000FEFE6AE08E48844208D101210420FFF7E2
:1057D000F6FE00210420FFF7F2FE5EE089488442D5
:1057E00008D101210820FFF7EAFE00210820FFF779
:1057F000E6FE52E08448844208D101211020FFF7E0
:10580000DEFE00211020FFF7DAFE46E07F488442EA
:1058100008D101212020FFF7D2FE00212020FFF730
:10582000CEFE3AE07A48844208D101214020FFF7B9
:10583000C6FE00214020FFF7C2FE2EE075488442DC
:1058400008D101218020FFF7BAFE00218020FFF758
:10585000B6FE22E07048844208D101218015FFF78E
:10586000AEFE0021A015FFF7AAFE16E06B488442A9
:1058700008D101214015FFF7A2FE00216015FFF7B6
:105880009EFE0AE06648844207D101210015FFF719
:1058900096FE00212015FFF792FE10BDF0B50A46D6
:1058A00000210023002400BF3DE0012505FA01F39B
:1058B000156805EA03049C4234D105684F000326AD
:1058C000BE40B543056015794E00B54006683543C6
:1058D00005601579012D02D01579022D16D1856844
:1058E0004F000326BE40B543856055794E00B54054
:1058F000866835438560456801268E40B54345601E
:10590000456896798E40B6B235434560C5684F000C
:105910000326BE40B543C560D5794E00B540C66884
:105920003543C560491C1029BFD3F0BD4FF6FF7148
:1059300001600021017141718171C171704708B529
:105940004FF480320092009A0A430092009AC2619A
:10595000C161009AC261C2690092C269009208BD29
:105960000246002013690B400BB1012000E000202B
:1059700070470146086980B27047024600205369AB
:105980000B400BB1012000E0002070470146486940
:1059900080B2704701837047418370470AB1018329
:1059A00000E0418370474161704742694A4042616B
:1059B0007047F0B5002300244D07ED0E02FA05F301
:1059C000CE1000F1200555F826504E07F70E0F2691
:1059D000BE40B543CF1000F1200646F82750CE1048
:1059E00000F1200555F8265045EA0304CE1000F1D9
:1059F000200545F82640F0BD0000024000040240AA
:105A000000080240000C0240001002400014024056
:105A100000180240001C0240002002400024024006
:105A20000028024032490143324A1160704770B584
:105A3000002100230F22C4781CB32E4C246804F4E8
:105A4000E064C4F5E064C4F30721C1F10404E3B2E7
:105A50000A4144789C40E1B28478144021430C0709
:105A6000210E254C05786155047804F01F050124AA
:105A7000AC4005786D11AD0005F1E025C5F8004199
:105A800009E0047804F01F050124AC401B4D0678A2
:105A9000761145F8264070BD194A0A400243154B5D
:105AA0001B1F1A60704739B1124A121D1268024357
:105AB000104B1B1D1A6006E00E4A121D126882432D
:105AC0000C4B1B1D1A607047042808D14FF0E021D1
:105AD000096941F004014FF0E022116107E04FF045
